{"contracts/FlareWindFutures.sol":{"FlareWindFutures":{"abi":[{"inputs":[{"internalType":"address","name":"_contractRegistry","type":"address"},{"internalType":"address","name":"_flrToken","type":"address"},{"internalType":"address","name":"_usdtToken","type":"address"}],"stateMutability":"nonpayable","type":"constructor"},{"inputs":[{"internalType":"address","name":"owner","type":"address"}],"name":"OwnableInvalidOwner","type":"error"},{"inputs":[{"internalType":"address","name":"account","type":"address"}],"name":"OwnableUnauthorizedAccount","type":"error"},{"inputs":[],"name":"ReentrancyGuardReentrantCall","type":"error"},{"anonymous":false,"inputs":[{"indexed":true,"internalType":"bytes32","name":"contractId","type":"bytes32"},{"indexed":true,"internalType":"address","name":"trader","type":"address"},{"indexed":false,"internalType":"bool","name":"isLong","type":"bool"},{"indexed":false,"internalType":"uint256","name":"strikePrice","type":"uint256"},{"indexed":false,"internalType":"uint256","name":"notionalAmount","type":"uint256"},{"indexed":false,"internalType":"uint256","name":"collateralAmount","type":"uint256"},{"indexed":false,"internalType":"address","name":"collateralToken","type":"address"},{"indexed":false,"internalType":"uint256","name":"expiryTimestamp","type":"uint256"}],"name":"FutureCreated","type":"event"},{"anonymous":false,"inputs":[{"indexed":true,"internalType":"bytes32","name":"contractId","type":"bytes32"},{"indexed":true,"internalType":"address","name":"trader","type":"address"},{"indexed":false,"internalType":"int256","name":"pnl","type":"int256"},{"indexed":false,"internalType":"uint256","name":"windSpeedAtExpiry","type":"uint256"}],"name":"FutureSettled","type":"event"},{"anonymous":false,"inputs":[{"indexed":false,"internalType":"uint256","name":"windSpeed","type":"uint256"},{"indexed":false,"internalType":"uint256","name":"flrUsdPrice","type":"uint256"},{"indexed":false,"internalType":"uint256","name":"timestamp","type":"uint256"}],"name":"MarketDataUpdated","type":"event"},{"anonymous":false,"inputs":[{"indexed":true,"internalType":"address","name":"previousOwner","type":"address"},{"indexed":true,"internalType":"address","name":"newOwner","type":"address"}],"name":"OwnershipTransferred","type":"event"},{"inputs":[],"name":"FLR_USD_FEED_ID","outputs":[{"internalType":"bytes21","name":"","type":"bytes21"}],"stateMutability":"view","type":"function"},{"inputs":[],"name":"MARGIN_REQUIREMENT","outputs":[{"internalType":"uint256","name":"","type":"uint256"}],"stateMutability":"view","type":"function"},{"inputs":[],"name":"SETTLEMENT_WINDOW","outputs":[{"internalType":"uint256","name":"","type":"uint256"}],"stateMutability":"view","type":"function"},{"inputs":[],"name":"WIND_SPEED_FEED_ID","outputs":[{"internalType":"bytes21","name":"","type":"bytes21"}],"stateMutability":"view","type":"function"},{"inputs":[{"internalType":"uint256","name":"","type":"uint256"}],"name":"allContracts","outputs":[{"internalType":"bytes32","name":"","type":"bytes32"}],"stateMutability":"view","type":"function"},{"inputs":[],"name":"contractRegistry","outputs":[{"internalType":"contract IContractRegistry","name":"","type":"address"}],"stateMutability":"view","type":"function"},{"inputs":[{"internalType":"bool","name":"_isLong","type":"bool"},{"internalType":"uint256","name":"_strikePrice","type":"uint256"},{"internalType":"uint256","name":"_notionalAmount","type":"uint256"},{"internalType":"address","name":"_collateralToken","type":"address"},{"internalType":"uint256","name":"_expiryDays","type":"uint256"}],"name":"createWindFuture","outputs":[],"stateMutability":"nonpayable","type":"function"},{"inputs":[],"name":"flrToken","outputs":[{"internalType":"contract IERC20","name":"","type":"address"}],"stateMutability":"view","type":"function"},{"inputs":[],"name":"ftsoV2","outputs":[{"internalType":"contract IFtsoV2","name":"","type":"address"}],"stateMutability":"view","type":"function"},{"inputs":[],"name":"getAllContracts","outputs":[{"internalType":"bytes32[]","name":"","type":"bytes32[]"}],"stateMutability":"view","type":"function"},{"inputs":[{"internalType":"bytes32","name":"_contractId","type":"bytes32"}],"name":"getContract","outputs":[{"components":[{"internalType":"bytes32","name":"contractId","type":"bytes32"},{"internalType":"address","name":"trader","type":"address"},{"internalType":"bool","name":"isLong","type":"bool"},{"internalType":"uint256","name":"strikePrice","type":"uint256"},{"internalType":"uint256","name":"notionalAmount","type":"uint256"},{"internalType":"uint256","name":"collateralAmount","type":"uint256"},{"internalType":"address","name":"collateralToken","type":"address"},{"internalType":"uint256","name":"expiryTimestamp","type":"uint256"},{"internalType":"bool","name":"isSettled","type":"bool"},{"internalType":"int256","name":"pnl","type":"int256"},{"internalType":"uint256","name":"createdAt","type":"uint256"}],"internalType":"struct FlareWindFutures.WindFuture","name":"","type":"tuple"}],"stateMutability":"view","type":"function"},{"inputs":[],"name":"getMarketData","outputs":[{"components":[{"internalType":"uint256","name":"currentWindSpeed","type":"uint256"},{"internalType":"uint256","name":"flrUsdPrice","type":"uint256"},{"internalType":"uint256","name":"lastUpdate","type":"uint256"}],"internalType":"struct FlareWindFutures.MarketData","name":"","type":"tuple"}],"stateMutability":"view","type":"function"},{"inputs":[{"internalType":"address","name":"_user","type":"address"}],"name":"getUserPositions","outputs":[{"internalType":"bytes32[]","name":"","type":"bytes32[]"}],"stateMutability":"view","type":"function"},{"inputs":[],"name":"marketData","outputs":[{"internalType":"uint256","name":"currentWindSpeed","type":"uint256"},{"internalType":"uint256","name":"flrUsdPrice","type":"uint256"},{"internalType":"uint256","name":"lastUpdate","type":"uint256"}],"stateMutability":"view","type":"function"},{"inputs":[],"name":"owner","outputs":[{"internalType":"address","name":"","type":"address"}],"stateMutability":"view","type":"function"},{"inputs":[],"name":"renounceOwnership","outputs":[],"stateMutability":"nonpayable","type":"function"},{"inputs":[{"internalType":"bytes32","name":"_contractId","type":"bytes32"}],"name":"settleFuture","outputs":[],"stateMutability":"nonpayable","type":"function"},{"inputs":[{"internalType":"address","name":"newOwner","type":"address"}],"name":"transferOwnership","outputs":[],"stateMutability":"nonpayable","type":"function"},{"inputs":[],"name":"updateFtsoInterface","outputs":[],"stateMutability":"nonpayable","type":"function"},{"inputs":[],"name":"updateMarketData","outputs":[],"stateMutability":"nonpayable","type":"function"},{"inputs":[],"name":"usdtToken","outputs":[{"internalType":"contract IERC20","name":"","type":"address"}],"stateMutability":"view","type":"function"},{"inputs":[{"internalType":"address","name":"","type":"address"},{"internalType":"uint256","name":"","type":"uint256"}],"name":"userPositions","outputs":[{"internalType":"bytes32","name":"","type":"bytes32"}],"stateMutability":"view","type":"function"},{"inputs":[{"internalType":"bytes32","name":"","type":"bytes32"}],"name":"windFutures","outputs":[{"internalType":"bytes32","name":"contractId","type":"bytes32"},{"internalType":"address","name":"trader","type":"address"},{"internalType":"bool","name":"isLong","type":"bool"},{"internalType":"uint256","name":"strikePrice","type":"uint256"},{"internalType":"uint256","name":"notionalAmount","type":"uint256"},{"internalType":"uint256","name":"collateralAmount","type":"uint256"},{"internalType":"address","name":"collateralToken","type":"address"},{"internalType":"uint256","name":"expiryTimestamp","type":"uint256"},{"internalType":"bool","name":"isSettled","type":"bool"},{"internalType":"int256","name":"pnl","type":"int256"},{"internalType":"uint256","name":"createdAt","type":"uint256"}],"stateMutability":"view","type":"function"}],"evm":{"bytecode":{"linkReferences":{},"object":"60e06040523480156200001157600080fd5b5060405162001a9738038062001a97833981016040819052620000349162000175565b600160005533806200006057604051631e4fbdf760e01b81526000600482015260240160405180910390fd5b6200006b816200010a565b506001600160a01b0383166080819052604080516330f95ed160e21b8152905163c3e57b44916004808201926020929091908290030181865afa158015620000b7573d6000803e3d6000fd5b505050506040513d601f19601f82011682018060405250810190620000dd9190620001c9565b600280546001600160a01b0319166001600160a01b0392831617905591821660a0521660c05250620001f0565b600180546001600160a01b038381166001600160a01b0319831681179093556040519116919082907f8be0079c531659141344cd1fd0a4f28419497f9722a3daafe3b4186f6b6457e090600090a35050565b6001600160a01b03811681146200017257600080fd5b50565b6000806000606084860312156200018b57600080fd5b835162000198816200015c565b6020850151909350620001ab816200015c565b6040850151909250620001be816200015c565b809150509250925092565b600060208284031215620001dc57600080fd5b8151620001e9816200015c565b9392505050565b60805160a05160c05161184d6200024a600039600081816103900152610d6201526000818161036901528181610a0301528181610a8101528181610d270152610e090152600081816103b701526111e2015261184d6000f3fe608060405234801561001057600080fd5b506004361061014d5760003560e01c8063715018a6116100c3578063b945b5271161007c578063b945b527146103d9578063cd1e4b2b14610406578063e16c7d9814610417578063e54e26b914610535578063ea015e6f14610548578063f2fde38b1461055057600080fd5b8063715018a61461033857806384e0648b146103405780638da5cb5b14610353578063985d73db14610364578063a98ad46c1461038b578063abf410e5146103b257600080fd5b80634d96264c116101155780634d96264c146101cf578063556517b1146101f95780635739ce25146102dc5780635e1b4d99146102e457806369f161c4146102f75780636ce020b81461032557600080fd5b80630abc7b561461015257806318d3ce961461015c57806325e898831461017a5780632a6bc2dd146101a55780633deb6cae146101b8575b600080fd5b61015a610563565b005b6101646106ad565b6040516101719190611368565b60405180910390f35b60025461018d906001600160a01b031681565b6040516001600160a01b039091168152602001610171565b6101646101b33660046113c1565b610705565b6101c1610e1081565b604051908152602001610171565b6101d7610771565b6040805182518152602080840151908201529181015190820152606001610171565b6102726102073660046113e5565b6003602081905260009182526040909120805460018201546002830154938301546004840154600585015460068601546007870154600888015460099098015496986001600160a01b038088169960ff600160a01b909904891699929895909116949290921691908b565b604080519b8c526001600160a01b039a8b1660208d0152981515988b019890985260608a0196909652608089019490945260a088019290925290941660c086015260e085019390935291151561010084015261012083019190915261014082015261016001610171565b6101c1601481565b6101c16102f23660046113fe565b6107ba565b610308665193148bd554d160c21b81565b6040516affffffffffffffffffffff199091168152602001610171565b61015a6103333660046113e5565b6107eb565b61015a610be6565b61015a61034e366004611438565b610bfa565b6001546001600160a01b031661018d565b61018d7f000000000000000000000000000000000000000000000000000000000000000081565b61018d7f000000000000000000000000000000000000000000000000000000000000000081565b61018d7f000000000000000000000000000000000000000000000000000000000000000081565b6006546007546008546103eb92919083565b60408051938452602084019290925290820152606001610171565b6103086655d3910bd554d160c21b81565b6105286104253660046113e5565b6040805161016081018252600080825260208201819052918101829052606081018290526080810182905260a0810182905260c0810182905260e0810182905261010081018290526101208101829052610140810191909152506000908152600360208181526040928390208351610160810185528154815260018201546001600160a01b038082169483019490945260ff600160a01b909104811615159582019590955260028201546060820152928101546080840152600481015460a0840152600581015490911660c0830152600681015460e083015260078101549092161515610100820152600882015461012082015260099091015461014082015290565b604051610171919061148a565b6101c16105433660046113e5565b6111b7565b61015a6111d8565b61015a61055e3660046113c1565b611284565b6002546040516349f4fc0360e11b8152665193148bd554d160c21b6004820152600091829182916001600160a01b0316906393e9f80690602401606060405180830381865afa1580156105ba573d6000803e3d6000fd5b505050506040513d601f19601f820116820180604052508101906105de9190611539565b9250925092506000808360000b12610617576105fb8360126115a5565b61060690600a6116a8565b61061090856116b7565b9050610638565b610620836116ce565b61062b90600a6116a8565b6106359085611702565b90505b60408051606080820183526102ee80835260208084018690524293850184905260068290556007869055600884905584518281529081018690529384019290925290917f4a81407baac7b9b658ebfeefd2e8f582852acd841304c3cd524ff279906c110e910160405180910390a15050505050565b606060058054806020026020016040519081016040528092919081815260200182805480156106fb57602002820191906000526020600020905b8154815260200190600101908083116106e7575b5050505050905090565b6001600160a01b03811660009081526004602090815260409182902080548351818402810184019094528084526060939283018282801561076557602002820191906000526020600020905b815481526020019060010190808311610751575b50505050509050919050565b61079560405180606001604052806000815260200160008152602001600081525090565b5060408051606081018252600654815260075460208201526008549181019190915290565b600460205281600052604060002081815481106107d657600080fd5b90600052602060002001600091509150505481565b6107f36112bf565b600081815260036020526040902060018101546001600160a01b03166108605760405162461bcd60e51b815260206004820152601760248201527f436f6e747261637420646f6573206e6f7420657869737400000000000000000060448201526064015b60405180910390fd5b600781015460ff16156108b55760405162461bcd60e51b815260206004820152601860248201527f436f6e747261637420616c726561647920736574746c656400000000000000006044820152606401610857565b80600601544210156109095760405162461bcd60e51b815260206004820152601860248201527f436f6e7472616374206e6f7420796574206578706972656400000000000000006044820152606401610857565b610e10816006015461091b9190611716565b42111561096a5760405162461bcd60e51b815260206004820152601960248201527f536574746c656d656e742077696e646f772065787069726564000000000000006044820152606401610857565b610972610563565b60065460028201546000906109879083611729565b6001840154909150600160a01b900460ff166109a9576109a681611750565b90505b600083600201548460030154836109c0919061176c565b6109ca919061179c565b6008850181905560078501805460ff1916600117905560048501549091506000821315610a665760058501546000906001600160a01b037f00000000000000000000000000000000000000000000000000000000000000008116911603610a5157600754610a4084670de0b6b3a76400006116b7565b610a4a9190611702565b9050610a54565b50815b610a5e8183611716565b915050610b03565b6000821215610b035760058501546000906001600160a01b037f00000000000000000000000000000000000000000000000000000000000000008116911603610ad857600754610ab584611750565b610ac790670de0b6b3a76400006116b7565b610ad19190611702565b9050610ae4565b610ae183611750565b90505b818110610af45760009150610b01565b610afe81836117ca565b91505b505b8015610b88576005850154600186015460405163a9059cbb60e01b81526001600160a01b0391821660048201526024810184905291169063a9059cbb906044016020604051808303816000875af1158015610b62573d6000803e3d6000fd5b505050506040513d601f19601f82011682018060405250810190610b8691906117dd565b505b600185015460408051848152602081018790526001600160a01b039092169188917f3ee724753ffa269797038da196dccd855008c0450838ff1d01bb51fbfdd77893910160405180910390a35050505050610be36001600055565b50565b610bee6112e9565b610bf86000611316565b565b610c026112bf565b8060071480610c11575080600e145b80610c1c575080601e145b610c605760405162461bcd60e51b8152602060048201526015602482015274125b9d985b1a5908195e1c1a5c9e481c195c9a5bd9605a1b6044820152606401610857565b6101908410158015610c7457506109608411155b610ccc5760405162461bcd60e51b8152602060048201526024808201527f537472696b65207072696365206f7574206f662072616e67652028342d3234206044820152636d70682960e01b6064820152608401610857565b68056bc75e2d63100000831015610d255760405162461bcd60e51b815260206004820152601b60248201527f4d696e696d756d20706f736974696f6e2073697a653a202431303000000000006044820152606401610857565b7f00000000000000000000000000000000000000000000000000000000000000006001600160a01b0316826001600160a01b03161480610d9657507f00000000000000000000000000000000000000000000000000000000000000006001600160a01b0316826001600160a01b0316145b610de25760405162461bcd60e51b815260206004820152601860248201527f496e76616c696420636f6c6c61746572616c20746f6b656e00000000000000006044820152606401610857565b610dea610563565b60006064610df96014866116b7565b610e039190611702565b905060007f00000000000000000000000000000000000000000000000000000000000000006001600160a01b0316846001600160a01b031603610e6657600754610e5583670de0b6b3a76400006116b7565b610e5f9190611702565b9050610e69565b50805b6040516323b872dd60e01b8152336004820152306024820152604481018290526001600160a01b038516906323b872dd906064016020604051808303816000875af1158015610ebc573d6000803e3d6000fd5b505050506040513d601f19601f82011682018060405250810190610ee091906117dd565b506005546040516bffffffffffffffffffffffff193360601b1660208201526034810188905260548101879052426074820152609481019190915260009060b40160405160208183030381529060405280519060200120905060008462015180610f4a91906116b7565b610f549042611716565b9050604051806101600160405280838152602001336001600160a01b031681526020018a15158152602001898152602001888152602001848152602001876001600160a01b031681526020018281526020016000151581526020016000815260200142815250600360008481526020019081526020016000206000820151816000015560208201518160010160006101000a8154816001600160a01b0302191690836001600160a01b0316021790555060408201518160010160146101000a81548160ff021916908315150217905550606082015181600201556080820151816003015560a0820151816004015560c08201518160050160006101000a8154816001600160a01b0302191690836001600160a01b0316021790555060e082015181600601556101008201518160070160006101000a81548160ff0219169083151502179055506101208201518160080155610140820151816009015590505060046000336001600160a01b03166001600160a01b031681526020019081526020016000208290806001815401808255809150506001900390600052602060002001600090919091909150556005829080600181540180825580915050600190039060005260206000200160009091909190915055336001600160a01b0316827f360a66541ea2109e656b35513352974421c4b4af95587f012fa35e83775bd82c8b8b8b888c8860405161119a9695949392919095151586526020860194909452604085019290925260608401526001600160a01b0316608083015260a082015260c00190565b60405180910390a3505050506111b06001600055565b5050505050565b600581815481106111c757600080fd5b600091825260209091200154905081565b6111e06112e9565b7f00000000000000000000000000000000000000000000000000000000000000006001600160a01b031663c3e57b446040518163ffffffff1660e01b8152600401602060405180830381865afa15801561123e573d6000803e3d6000fd5b505050506040513d601f19601f8201168201806040525081019061126291906117fa565b600280546001600160a01b0319166001600160a01b0392909216919091179055565b61128c6112e9565b6001600160a01b0381166112b657604051631e4fbdf760e01b815260006004820152602401610857565b610be381611316565b6002600054036112e257604051633ee5aeb560e01b815260040160405180910390fd5b6002600055565b6001546001600160a01b03163314610bf85760405163118cdaa760e01b8152336004820152602401610857565b600180546001600160a01b038381166001600160a01b0319831681179093556040519116919082907f8be0079c531659141344cd1fd0a4f28419497f9722a3daafe3b4186f6b6457e090600090a35050565b6020808252825182820181905260009190848201906040850190845b818110156113a057835183529284019291840191600101611384565b50909695505050505050565b6001600160a01b0381168114610be357600080fd5b6000602082840312156113d357600080fd5b81356113de816113ac565b9392505050565b6000602082840312156113f757600080fd5b5035919050565b6000806040838503121561141157600080fd5b823561141c816113ac565b946020939093013593505050565b8015158114610be357600080fd5b600080600080600060a0868803121561145057600080fd5b853561145b8161142a565b945060208601359350604086013592506060860135611479816113ac565b949793965091946080013592915050565b815181526020808301516101608301916114ae908401826001600160a01b03169052565b5060408301516114c2604084018215159052565b50606083015160608301526080830151608083015260a083015160a083015260c08301516114fb60c08401826001600160a01b03169052565b5060e083015160e08301526101008084015161151a8285018215159052565b5050610120838101519083015261014092830151929091019190915290565b60008060006060848603121561154e57600080fd5b8351925060208401518060000b811461156657600080fd5b604085015190925067ffffffffffffffff8116811461158457600080fd5b809150509250925092565b634e487b7160e01b600052601160045260246000fd5b60ff82811682821603908111156115be576115be61158f565b92915050565b600181815b808511156115ff5781600019048211156115e5576115e561158f565b808516156115f257918102915b93841c93908002906115c9565b509250929050565b600082611616575060016115be565b81611623575060006115be565b816001811461163957600281146116435761165f565b60019150506115be565b60ff8411156116545761165461158f565b50506001821b6115be565b5060208310610133831016604e8410600b8410161715611682575081810a6115be565b61168c83836115c4565b80600019048211156116a0576116a061158f565b029392505050565b60006113de60ff841683611607565b80820281158282048414176115be576115be61158f565b600081810b608081016116e3576116e361158f565b60000392915050565b634e487b7160e01b600052601260045260246000fd5b600082611711576117116116ec565b500490565b808201808211156115be576115be61158f565b81810360008312801583831316838312821617156117495761174961158f565b5092915050565b6000600160ff1b82016117655761176561158f565b5060000390565b80820260008212600160ff1b841416156117885761178861158f565b81810583148215176115be576115be61158f565b6000826117ab576117ab6116ec565b600160ff1b8214600019841416156117c5576117c561158f565b500590565b818103818111156115be576115be61158f565b6000602082840312156117ef57600080fd5b81516113de8161142a565b60006020828403121561180c57600080fd5b81516113de816113ac56fea2646970667358221220831f9ac3ab193ca7682c9ed2f48c1d76334320d1e63e91427cbd632045fe107d64736f6c63430008140033","opcodes":"PUSH1 0xE0 PUSH1 0x40 MSTORE CALLVALUE DUP1 ISZERO PUSH3 0x11 JUMPI PUSH1 0x0 DUP1 REVERT JUMPDEST POP PUSH1 0x40 MLOAD PUSH3 0x1A97 CODESIZE SUB DUP1 PUSH3 0x1A97 DUP4 CODECOPY DUP2 ADD PUSH1 0x40 DUP2 SWAP1 MSTORE PUSH3 0x34 SWAP2 PUSH3 0x175 JUMP JUMPDEST PUSH1 0x1 PUSH1 0x0 SSTORE CALLER DUP1 PUSH3 0x60 JUMPI PUSH1 0x40 MLOAD PUSH4 0x1E4FBDF7 PUSH1 0xE0 SHL DUP2 MSTORE PUSH1 0x0 PUSH1 0x4 DUP3 ADD MSTORE PUSH1 0x24 ADD PUSH1 0x40 MLOAD DUP1 SWAP2 SUB SWAP1 REVERT JUMPDEST PUSH3 0x6B DUP2 PUSH3 0x10A JUMP JUMPDEST POP PUSH1 0x1 PUSH1 0x1 PUSH1 0xA0 SHL SUB DUP4 AND PUSH1 0x80 DUP2 SWAP1 MSTORE PUSH1 0x40 DUP1 MLOAD PUSH4 0x30F95ED1 PUSH1 0xE2 SHL DUP2 MSTORE SWAP1 MLOAD PUSH4 0xC3E57B44 SWAP2 PUSH1 0x4 DUP1 DUP3 ADD SWAP3 PUSH1 0x20 SWAP3 SWAP1 SWAP2 SWAP1 DUP3 SWAP1 SUB ADD DUP2 DUP7 GAS STATICCALL ISZERO DUP1 ISZERO PUSH3 0xB7 JUMPI RETURNDATASIZE PUSH1 0x0 DUP1 RETURNDATACOPY RETURNDATASIZE PUSH1 0x0 REVERT JUMPDEST POP POP POP POP PUSH1 0x40 MLOAD RETURNDATASIZE PUSH1 0x1F NOT PUSH1 0x1F DUP3 ADD AND DUP3 ADD DUP1 PUSH1 0x40 MSTORE POP DUP2 ADD SWAP1 PUSH3 0xDD SWAP2 SWAP1 PUSH3 0x1C9 JUMP JUMPDEST PUSH1 0x2 DUP1 SLOAD PUSH1 0x1 PUSH1 0x1 PUSH1 0xA0 SHL SUB NOT AND PUSH1 0x1 PUSH1 0x1 PUSH1 0xA0 SHL SUB SWAP3 DUP4 AND OR SWAP1 SSTORE SWAP2 DUP3 AND PUSH1 0xA0 MSTORE AND PUSH1 0xC0 MSTORE POP PUSH3 0x1F0 JUMP JUMPDEST PUSH1 0x1 DUP1 SLOAD PUSH1 0x1 PUSH1 0x1 PUSH1 0xA0 SHL SUB DUP4 DUP2 AND PUSH1 0x1 PUSH1 0x1 PUSH1 0xA0 SHL SUB NOT DUP4 AND DUP2 OR SWAP1 SWAP4 SSTORE PUSH1 0x40 MLOAD SWAP2 AND SWAP2 SWAP1 DUP3 SWAP1 PUSH32 0x8BE0079C531659141344CD1FD0A4F28419497F9722A3DAAFE3B4186F6B6457E0 SWAP1 PUSH1 0x0 SWAP1 LOG3 POP POP JUMP JUMPDEST PUSH1 0x1 PUSH1 0x1 PUSH1 0xA0 SHL SUB DUP2 AND DUP2 EQ PUSH3 0x172 JUMPI PUSH1 0x0 DUP1 REVERT JUMPDEST POP JUMP JUMPDEST PUSH1 0x0 DUP1 PUSH1 0x0 PUSH1 0x60 DUP5 DUP7 SUB SLT ISZERO PUSH3 0x18B JUMPI PUSH1 0x0 DUP1 REVERT JUMPDEST DUP4 MLOAD PUSH3 0x198 DUP2 PUSH3 0x15C JUMP JUMPDEST PUSH1 0x20 DUP6 ADD MLOAD SWAP1 SWAP4 POP PUSH3 0x1AB DUP2 PUSH3 0x15C JUMP JUMPDEST PUSH1 0x40 DUP6 ADD MLOAD SWAP1 SWAP3 POP PUSH3 0x1BE DUP2 PUSH3 0x15C JUMP JUMPDEST DUP1 SWAP2 POP POP SWAP3 POP SWAP3 POP SWAP3 JUMP JUMPDEST PUSH1 0x0 PUSH1 0x20 DUP3 DUP5 SUB SLT ISZERO PUSH3 0x1DC JUMPI PUSH1 0x0 DUP1 REVERT JUMPDEST DUP2 MLOAD PUSH3 0x1E9 DUP2 PUSH3 0x15C JUMP JUMPDEST SWAP4 SWAP3 POP POP POP JUMP JUMPDEST PUSH1 0x80 MLOAD PUSH1 0xA0 MLOAD PUSH1 0xC0 MLOAD PUSH2 0x184D PUSH3 0x24A PUSH1 0x0 CODECOPY PUSH1 0x0 DUP2 DUP2 PUSH2 0x390 ADD MSTORE PUSH2 0xD62 ADD MSTORE PUSH1 0x0 DUP2 DUP2 PUSH2 0x369 ADD MSTORE DUP2 DUP2 PUSH2 0xA03 ADD MSTORE DUP2 DUP2 PUSH2 0xA81 ADD MSTORE DUP2 DUP2 PUSH2 0xD27 ADD MSTORE PUSH2 0xE09 ADD MSTORE PUSH1 0x0 DUP2 DUP2 PUSH2 0x3B7 ADD MSTORE PUSH2 0x11E2 ADD MSTORE PUSH2 0x184D PUSH1 0x0 RETURN INVALID PUSH1 0x80 PUSH1 0x40 MSTORE CALLVALUE DUP1 ISZERO PUSH2 0x10 JUMPI PUSH1 0x0 DUP1 REVERT JUMPDEST POP PUSH1 0x4 CALLDATASIZE LT PUSH2 0x14D JUMPI PUSH1 0x0 CALLDATALOAD PUSH1 0xE0 SHR DUP1 PUSH4 0x715018A6 GT PUSH2 0xC3 JUMPI DUP1 PUSH4 0xB945B527 GT PUSH2 0x7C JUMPI DUP1 PUSH4 0xB945B527 EQ PUSH2 0x3D9 JUMPI DUP1 PUSH4 0xCD1E4B2B EQ PUSH2 0x406 JUMPI DUP1 PUSH4 0xE16C7D98 EQ PUSH2 0x417 JUMPI DUP1 PUSH4 0xE54E26B9 EQ PUSH2 0x535 JUMPI DUP1 PUSH4 0xEA015E6F EQ PUSH2 0x548 JUMPI DUP1 PUSH4 0xF2FDE38B EQ PUSH2 0x550 JUMPI PUSH1 0x0 DUP1 REVERT JUMPDEST DUP1 PUSH4 0x715018A6 EQ PUSH2 0x338 JUMPI DUP1 PUSH4 0x84E0648B EQ PUSH2 0x340 JUMPI DUP1 PUSH4 0x8DA5CB5B EQ PUSH2 0x353 JUMPI DUP1 PUSH4 0x985D73DB EQ PUSH2 0x364 JUMPI DUP1 PUSH4 0xA98AD46C EQ PUSH2 0x38B JUMPI DUP1 PUSH4 0xABF410E5 EQ PUSH2 0x3B2 JUMPI PUSH1 0x0 DUP1 REVERT JUMPDEST DUP1 PUSH4 0x4D96264C GT PUSH2 0x115 JUMPI DUP1 PUSH4 0x4D96264C EQ PUSH2 0x1CF JUMPI DUP1 PUSH4 0x556517B1 EQ PUSH2 0x1F9 JUMPI DUP1 PUSH4 0x5739CE25 EQ PUSH2 0x2DC JUMPI DUP1 PUSH4 0x5E1B4D99 EQ PUSH2 0x2E4 JUMPI DUP1 PUSH4 0x69F161C4 EQ PUSH2 0x2F7 JUMPI DUP1 PUSH4 0x6CE020B8 EQ PUSH2 0x325 JUMPI PUSH1 0x0 DUP1 REVERT JUMPDEST DUP1 PUSH4 0xABC7B56 EQ PUSH2 0x152 JUMPI DUP1 PUSH4 0x18D3CE96 EQ PUSH2 0x15C JUMPI DUP1 PUSH4 0x25E89883 EQ PUSH2 0x17A JUMPI DUP1 PUSH4 0x2A6BC2DD EQ PUSH2 0x1A5 JUMPI DUP1 PUSH4 0x3DEB6CAE EQ PUSH2 0x1B8 JUMPI JUMPDEST PUSH1 0x0 DUP1 REVERT JUMPDEST PUSH2 0x15A PUSH2 0x563 JUMP JUMPDEST STOP JUMPDEST PUSH2 0x164 PUSH2 0x6AD JUMP JUMPDEST PUSH1 0x40 MLOAD PUSH2 0x171 SWAP2 SWAP1 PUSH2 0x1368 JUMP JUMPDEST PUSH1 0x40 MLOAD DUP1 SWAP2 SUB SWAP1 RETURN JUMPDEST PUSH1 0x2 SLOAD PUSH2 0x18D SWAP1 PUSH1 0x1 PUSH1 0x1 PUSH1 0xA0 SHL SUB AND DUP2 JUMP JUMPDEST PUSH1 0x40 MLOAD PUSH1 0x1 PUSH1 0x1 PUSH1 0xA0 SHL SUB SWAP1 SWAP2 AND DUP2 MSTORE PUSH1 0x20 ADD PUSH2 0x171 JUMP JUMPDEST PUSH2 0x164 PUSH2 0x1B3 CALLDATASIZE PUSH1 0x4 PUSH2 0x13C1 JUMP JUMPDEST PUSH2 0x705 JUMP JUMPDEST PUSH2 0x1C1 PUSH2 0xE10 DUP2 JUMP JUMPDEST PUSH1 0x40 MLOAD SWAP1 DUP2 MSTORE PUSH1 0x20 ADD PUSH2 0x171 JUMP JUMPDEST PUSH2 0x1D7 PUSH2 0x771 JUMP JUMPDEST PUSH1 0x40 DUP1 MLOAD DUP3 MLOAD DUP2 MSTORE PUSH1 0x20 DUP1 DUP5 ADD MLOAD SWAP1 DUP3 ADD MSTORE SWAP2 DUP2 ADD MLOAD SWAP1 DUP3 ADD MSTORE PUSH1 0x60 ADD PUSH2 0x171 JUMP JUMPDEST PUSH2 0x272 PUSH2 0x207 CALLDATASIZE PUSH1 0x4 PUSH2 0x13E5 JUMP JUMPDEST PUSH1 0x3 PUSH1 0x20 DUP2 SWAP1 MSTORE PUSH1 0x0 SWAP2 DUP3 MSTORE PUSH1 0x40 SWAP1 SWAP2 KECCAK256 DUP1 SLOAD PUSH1 0x1 DUP3 ADD SLOAD PUSH1 0x2 DUP4 ADD SLOAD SWAP4 DUP4 ADD SLOAD PUSH1 0x4 DUP5 ADD SLOAD PUSH1 0x5 DUP6 ADD SLOAD PUSH1 0x6 DUP7 ADD SLOAD PUSH1 0x7 DUP8 ADD SLOAD PUSH1 0x8 DUP9 ADD SLOAD PUSH1 0x9 SWAP1 SWAP9 ADD SLOAD SWAP7 SWAP9 PUSH1 0x1 PUSH1 0x1 PUSH1 0xA0 SHL SUB DUP1 DUP9 AND SWAP10 PUSH1 0xFF PUSH1 0x1 PUSH1 0xA0 SHL SWAP1 SWAP10 DIV DUP10 AND SWAP10 SWAP3 SWAP9 SWAP6 SWAP1 SWAP2 AND SWAP5 SWAP3 SWAP1 SWAP3 AND SWAP2 SWAP1 DUP12 JUMP JUMPDEST PUSH1 0x40 DUP1 MLOAD SWAP12 DUP13 MSTORE PUSH1 0x1 PUSH1 0x1 PUSH1 0xA0 SHL SUB SWAP11 DUP12 AND PUSH1 0x20 DUP14 ADD MSTORE SWAP9 ISZERO ISZERO SWAP9 DUP12 ADD SWAP9 SWAP1 SWAP9 MSTORE PUSH1 0x60 DUP11 ADD SWAP7 SWAP1 SWAP7 MSTORE PUSH1 0x80 DUP10 ADD SWAP5 SWAP1 SWAP5 MSTORE PUSH1 0xA0 DUP9 ADD SWAP3 SWAP1 SWAP3 MSTORE SWAP1 SWAP5 AND PUSH1 0xC0 DUP7 ADD MSTORE PUSH1 0xE0 DUP6 ADD SWAP4 SWAP1 SWAP4 MSTORE SWAP2 ISZERO ISZERO PUSH2 0x100 DUP5 ADD MSTORE PUSH2 0x120 DUP4 ADD SWAP2 SWAP1 SWAP2 MSTORE PUSH2 0x140 DUP3 ADD MSTORE PUSH2 0x160 ADD PUSH2 0x171 JUMP JUMPDEST PUSH2 0x1C1 PUSH1 0x14 DUP2 JUMP JUMPDEST PUSH2 0x1C1 PUSH2 0x2F2 CALLDATASIZE PUSH1 0x4 PUSH2 0x13FE JUMP JUMPDEST PUSH2 0x7BA JUMP JUMPDEST PUSH2 0x308 PUSH7 0x5193148BD554D1 PUSH1 0xC2 SHL DUP2 JUMP JUMPDEST PUSH1 0x40 MLOAD PUSH11 0xFFFFFFFFFFFFFFFFFFFFFF NOT SWAP1 SWAP2 AND DUP2 MSTORE PUSH1 0x20 ADD PUSH2 0x171 JUMP JUMPDEST PUSH2 0x15A PUSH2 0x333 CALLDATASIZE PUSH1 0x4 PUSH2 0x13E5 JUMP JUMPDEST PUSH2 0x7EB JUMP JUMPDEST PUSH2 0x15A PUSH2 0xBE6 JUMP JUMPDEST PUSH2 0x15A PUSH2 0x34E CALLDATASIZE PUSH1 0x4 PUSH2 0x1438 JUMP JUMPDEST PUSH2 0xBFA JUMP JUMPDEST PUSH1 0x1 SLOAD PUSH1 0x1 PUSH1 0x1 PUSH1 0xA0 SHL SUB AND PUSH2 0x18D JUMP JUMPDEST PUSH2 0x18D PUSH32 0x0 DUP2 JUMP JUMPDEST PUSH2 0x18D PUSH32 0x0 DUP2 JUMP JUMPDEST PUSH2 0x18D PUSH32 0x0 DUP2 JUMP JUMPDEST PUSH1 0x6 SLOAD PUSH1 0x7 SLOAD PUSH1 0x8 SLOAD PUSH2 0x3EB SWAP3 SWAP2 SWAP1 DUP4 JUMP JUMPDEST PUSH1 0x40 DUP1 MLOAD SWAP4 DUP5 MSTORE PUSH1 0x20 DUP5 ADD SWAP3 SWAP1 SWAP3 MSTORE SWAP1 DUP3 ADD MSTORE PUSH1 0x60 ADD PUSH2 0x171 JUMP JUMPDEST PUSH2 0x308 PUSH7 0x55D3910BD554D1 PUSH1 0xC2 SHL DUP2 JUMP JUMPDEST PUSH2 0x528 PUSH2 0x425 CALLDATASIZE PUSH1 0x4 PUSH2 0x13E5 JUMP JUMPDEST PUSH1 0x40 DUP1 MLOAD PUSH2 0x160 DUP2 ADD DUP3 MSTORE PUSH1 0x0 DUP1 DUP3 MSTORE PUSH1 0x20 DUP3 ADD DUP2 SWAP1 MSTORE SWAP2 DUP2 ADD DUP3 SWAP1 MSTORE PUSH1 0x60 DUP2 ADD DUP3 SWAP1 MSTORE PUSH1 0x80 DUP2 ADD DUP3 SWAP1 MSTORE PUSH1 0xA0 DUP2 ADD DUP3 SWAP1 MSTORE PUSH1 0xC0 DUP2 ADD DUP3 SWAP1 MSTORE PUSH1 0xE0 DUP2 ADD DUP3 SWAP1 MSTORE PUSH2 0x100 DUP2 ADD DUP3 SWAP1 MSTORE PUSH2 0x120 DUP2 ADD DUP3 SWAP1 MSTORE PUSH2 0x140 DUP2 ADD SWAP2 SWAP1 SWAP2 MSTORE POP PUSH1 0x0 SWAP1 DUP2 MSTORE PUSH1 0x3 PUSH1 0x20 DUP2 DUP2 MSTORE PUSH1 0x40 SWAP3 DUP4 SWAP1 KECCAK256 DUP4 MLOAD PUSH2 0x160 DUP2 ADD DUP6 MSTORE DUP2 SLOAD DUP2 MSTORE PUSH1 0x1 DUP3 ADD SLOAD PUSH1 0x1 PUSH1 0x1 PUSH1 0xA0 SHL SUB DUP1 DUP3 AND SWAP5 DUP4 ADD SWAP5 SWAP1 SWAP5 MSTORE PUSH1 0xFF PUSH1 0x1 PUSH1 0xA0 SHL SWAP1 SWAP2 DIV DUP2 AND ISZERO ISZERO SWAP6 DUP3 ADD SWAP6 SWAP1 SWAP6 MSTORE PUSH1 0x2 DUP3 ADD SLOAD PUSH1 0x60 DUP3 ADD MSTORE SWAP3 DUP2 ADD SLOAD PUSH1 0x80 DUP5 ADD MSTORE PUSH1 0x4 DUP2 ADD SLOAD PUSH1 0xA0 DUP5 ADD MSTORE PUSH1 0x5 DUP2 ADD SLOAD SWAP1 SWAP2 AND PUSH1 0xC0 DUP4 ADD MSTORE PUSH1 0x6 DUP2 ADD SLOAD PUSH1 0xE0 DUP4 ADD MSTORE PUSH1 0x7 DUP2 ADD SLOAD SWAP1 SWAP3 AND ISZERO ISZERO PUSH2 0x100 DUP3 ADD MSTORE PUSH1 0x8 DUP3 ADD SLOAD PUSH2 0x120 DUP3 ADD MSTORE PUSH1 0x9 SWAP1 SWAP2 ADD SLOAD PUSH2 0x140 DUP3 ADD MSTORE SWAP1 JUMP JUMPDEST PUSH1 0x40 MLOAD PUSH2 0x171 SWAP2 SWAP1 PUSH2 0x148A JUMP JUMPDEST PUSH2 0x1C1 PUSH2 0x543 CALLDATASIZE PUSH1 0x4 PUSH2 0x13E5 JUMP JUMPDEST PUSH2 0x11B7 JUMP JUMPDEST PUSH2 0x15A PUSH2 0x11D8 JUMP JUMPDEST PUSH2 0x15A PUSH2 0x55E CALLDATASIZE PUSH1 0x4 PUSH2 0x13C1 JUMP JUMPDEST PUSH2 0x1284 JUMP JUMPDEST PUSH1 0x2 SLOAD PUSH1 0x40 MLOAD PUSH4 0x49F4FC03 PUSH1 0xE1 SHL DUP2 MSTORE PUSH7 0x5193148BD554D1 PUSH1 0xC2 SHL PUSH1 0x4 DUP3 ADD MSTORE PUSH1 0x0 SWAP2 DUP3 SWAP2 DUP3 SWAP2 PUSH1 0x1 PUSH1 0x1 PUSH1 0xA0 SHL SUB AND SWAP1 PUSH4 0x93E9F806 SWAP1 PUSH1 0x24 ADD PUSH1 0x60 PUSH1 0x40 MLOAD DUP1 DUP4 SUB DUP2 DUP7 GAS STATICCALL ISZERO DUP1 ISZERO PUSH2 0x5BA JUMPI RETURNDATASIZE PUSH1 0x0 DUP1 RETURNDATACOPY RETURNDATASIZE PUSH1 0x0 REVERT JUMPDEST POP POP POP POP PUSH1 0x40 MLOAD RETURNDATASIZE PUSH1 0x1F NOT PUSH1 0x1F DUP3 ADD AND DUP3 ADD DUP1 PUSH1 0x40 MSTORE POP DUP2 ADD SWAP1 PUSH2 0x5DE SWAP2 SWAP1 PUSH2 0x1539 JUMP JUMPDEST SWAP3 POP SWAP3 POP SWAP3 POP PUSH1 0x0 DUP1 DUP4 PUSH1 0x0 SIGNEXTEND SLT PUSH2 0x617 JUMPI PUSH2 0x5FB DUP4 PUSH1 0x12 PUSH2 0x15A5 JUMP JUMPDEST PUSH2 0x606 SWAP1 PUSH1 0xA PUSH2 0x16A8 JUMP JUMPDEST PUSH2 0x610 SWAP1 DUP6 PUSH2 0x16B7 JUMP JUMPDEST SWAP1 POP PUSH2 0x638 JUMP JUMPDEST PUSH2 0x620 DUP4 PUSH2 0x16CE JUMP JUMPDEST PUSH2 0x62B SWAP1 PUSH1 0xA PUSH2 0x16A8 JUMP JUMPDEST PUSH2 0x635 SWAP1 DUP6 PUSH2 0x1702 JUMP JUMPDEST SWAP1 POP JUMPDEST PUSH1 0x40 DUP1 MLOAD PUSH1 0x60 DUP1 DUP3 ADD DUP4 MSTORE PUSH2 0x2EE DUP1 DUP4 MSTORE PUSH1 0x20 DUP1 DUP5 ADD DUP7 SWAP1 MSTORE TIMESTAMP SWAP4 DUP6 ADD DUP5 SWAP1 MSTORE PUSH1 0x6 DUP3 SWAP1 SSTORE PUSH1 0x7 DUP7 SWAP1 SSTORE PUSH1 0x8 DUP5 SWAP1 SSTORE DUP5 MLOAD DUP3 DUP2 MSTORE SWAP1 DUP2 ADD DUP7 SWAP1 MSTORE SWAP4 DUP5 ADD SWAP3 SWAP1 SWAP3 MSTORE SWAP1 SWAP2 PUSH32 0x4A81407BAAC7B9B658EBFEEFD2E8F582852ACD841304C3CD524FF279906C110E SWAP2 ADD PUSH1 0x40 MLOAD DUP1 SWAP2 SUB SWAP1 LOG1 POP POP POP POP POP JUMP JUMPDEST PUSH1 0x60 PUSH1 0x5 DUP1 SLOAD DUP1 PUSH1 0x20 MUL PUSH1 0x20 ADD PUSH1 0x40 MLOAD SWAP1 DUP2 ADD PUSH1 0x40 MSTORE DUP1 SWAP3 SWAP2 SWAP1 DUP2 DUP2 MSTORE PUSH1 0x20 ADD DUP3 DUP1 SLOAD DUP1 ISZERO PUSH2 0x6FB JUMPI PUSH1 0x20 MUL DUP3 ADD SWAP2 SWAP1 PUSH1 0x0 MSTORE PUSH1 0x20 PUSH1 0x0 KECCAK256 SWAP1 JUMPDEST DUP2 SLOAD DUP2 MSTORE PUSH1 0x20 ADD SWAP1 PUSH1 0x1 ADD SWAP1 DUP1 DUP4 GT PUSH2 0x6E7 JUMPI JUMPDEST POP POP POP POP POP SWAP1 POP SWAP1 JUMP JUMPDEST PUSH1 0x1 PUSH1 0x1 PUSH1 0xA0 SHL SUB DUP2 AND PUSH1 0x0 SWAP1 DUP2 MSTORE PUSH1 0x4 PUSH1 0x20 SWAP1 DUP2 MSTORE PUSH1 0x40 SWAP2 DUP3 SWAP1 KECCAK256 DUP1 SLOAD DUP4 MLOAD DUP2 DUP5 MUL DUP2 ADD DUP5 ADD SWAP1 SWAP5 MSTORE DUP1 DUP5 MSTORE PUSH1 0x60 SWAP4 SWAP3 DUP4 ADD DUP3 DUP3 DUP1 ISZERO PUSH2 0x765 JUMPI PUSH1 0x20 MUL DUP3 ADD SWAP2 SWAP1 PUSH1 0x0 MSTORE PUSH1 0x20 PUSH1 0x0 KECCAK256 SWAP1 JUMPDEST DUP2 SLOAD DUP2 MSTORE PUSH1 0x20 ADD SWAP1 PUSH1 0x1 ADD SWAP1 DUP1 DUP4 GT PUSH2 0x751 JUMPI JUMPDEST POP POP POP POP POP SWAP1 POP SWAP2 SWAP1 POP JUMP JUMPDEST PUSH2 0x795 PUSH1 0x40 MLOAD DUP1 PUSH1 0x60 ADD PUSH1 0x40 MSTORE DUP1 PUSH1 0x0 DUP2 MSTORE PUSH1 0x20 ADD PUSH1 0x0 DUP2 MSTORE PUSH1 0x20 ADD PUSH1 0x0 DUP2 MSTORE POP SWAP1 JUMP JUMPDEST POP PUSH1 0x40 DUP1 MLOAD PUSH1 0x60 DUP2 ADD DUP3 MSTORE PUSH1 0x6 SLOAD DUP2 MSTORE PUSH1 0x7 SLOAD PUSH1 0x20 DUP3 ADD MSTORE PUSH1 0x8 SLOAD SWAP2 DUP2 ADD SWAP2 SWAP1 SWAP2 MSTORE SWAP1 JUMP JUMPDEST PUSH1 0x4 PUSH1 0x20 MSTORE DUP2 PUSH1 0x0 MSTORE PUSH1 0x40 PUSH1 0x0 KECCAK256 DUP2 DUP2 SLOAD DUP2 LT PUSH2 0x7D6 JUMPI PUSH1 0x0 DUP1 REVERT JUMPDEST SWAP1 PUSH1 0x0 MSTORE PUSH1 0x20 PUSH1 0x0 KECCAK256 ADD PUSH1 0x0 SWAP2 POP SWAP2 POP POP SLOAD DUP2 JUMP JUMPDEST PUSH2 0x7F3 PUSH2 0x12BF JUMP JUMPDEST PUSH1 0x0 DUP2 DUP2 MSTORE PUSH1 0x3 PUSH1 0x20 MSTORE PUSH1 0x40 SWAP1 KECCAK256 PUSH1 0x1 DUP2 ADD SLOAD PUSH1 0x1 PUSH1 0x1 PUSH1 0xA0 SHL SUB AND PUSH2 0x860 JUMPI PUSH1 0x40 MLOAD PUSH3 0x461BCD PUSH1 0xE5 SHL DUP2 MSTORE PUSH1 0x20 PUSH1 0x4 DUP3 ADD MSTORE PUSH1 0x17 PUSH1 0x24 DUP3 ADD MSTORE PUSH32 0x436F6E747261637420646F6573206E6F74206578697374000000000000000000 PUSH1 0x44 DUP3 ADD MSTORE PUSH1 0x64 ADD JUMPDEST PUSH1 0x40 MLOAD DUP1 SWAP2 SUB SWAP1 REVERT JUMPDEST PUSH1 0x7 DUP2 ADD SLOAD PUSH1 0xFF AND ISZERO PUSH2 0x8B5 JUMPI PUSH1 0x40 MLOAD PUSH3 0x461BCD PUSH1 0xE5 SHL DUP2 MSTORE PUSH1 0x20 PUSH1 0x4 DUP3 ADD MSTORE PUSH1 0x18 PUSH1 0x24 DUP3 ADD MSTORE PUSH32 0x436F6E747261637420616C726561647920736574746C65640000000000000000 PUSH1 0x44 DUP3 ADD MSTORE PUSH1 0x64 ADD PUSH2 0x857 JUMP JUMPDEST DUP1 PUSH1 0x6 ADD SLOAD TIMESTAMP LT ISZERO PUSH2 0x909 JUMPI PUSH1 0x40 MLOAD PUSH3 0x461BCD PUSH1 0xE5 SHL DUP2 MSTORE PUSH1 0x20 PUSH1 0x4 DUP3 ADD MSTORE PUSH1 0x18 PUSH1 0x24 DUP3 ADD MSTORE PUSH32 0x436F6E7472616374206E6F742079657420657870697265640000000000000000 PUSH1 0x44 DUP3 ADD MSTORE PUSH1 0x64 ADD PUSH2 0x857 JUMP JUMPDEST PUSH2 0xE10 DUP2 PUSH1 0x6 ADD SLOAD PUSH2 0x91B SWAP2 SWAP1 PUSH2 0x1716 JUMP JUMPDEST TIMESTAMP GT ISZERO PUSH2 0x96A JUMPI PUSH1 0x40 MLOAD PUSH3 0x461BCD PUSH1 0xE5 SHL DUP2 MSTORE PUSH1 0x20 PUSH1 0x4 DUP3 ADD MSTORE PUSH1 0x19 PUSH1 0x24 DUP3 ADD MSTORE PUSH32 0x536574746C656D656E742077696E646F77206578706972656400000000000000 PUSH1 0x44 DUP3 ADD MSTORE PUSH1 0x64 ADD PUSH2 0x857 JUMP JUMPDEST PUSH2 0x972 PUSH2 0x563 JUMP JUMPDEST PUSH1 0x6 SLOAD PUSH1 0x2 DUP3 ADD SLOAD PUSH1 0x0 SWAP1 PUSH2 0x987 SWAP1 DUP4 PUSH2 0x1729 JUMP JUMPDEST PUSH1 0x1 DUP5 ADD SLOAD SWAP1 SWAP2 POP PUSH1 0x1 PUSH1 0xA0 SHL SWAP1 DIV PUSH1 0xFF AND PUSH2 0x9A9 JUMPI PUSH2 0x9A6 DUP2 PUSH2 0x1750 JUMP JUMPDEST SWAP1 POP JUMPDEST PUSH1 0x0 DUP4 PUSH1 0x2 ADD SLOAD DUP5 PUSH1 0x3 ADD SLOAD DUP4 PUSH2 0x9C0 SWAP2 SWAP1 PUSH2 0x176C JUMP JUMPDEST PUSH2 0x9CA SWAP2 SWAP1 PUSH2 0x179C JUMP JUMPDEST PUSH1 0x8 DUP6 ADD DUP2 SWAP1 SSTORE PUSH1 0x7 DUP6 ADD DUP1 SLOAD PUSH1 0xFF NOT AND PUSH1 0x1 OR SWAP1 SSTORE PUSH1 0x4 DUP6 ADD SLOAD SWAP1 SWAP2 POP PUSH1 0x0 DUP3 SGT ISZERO PUSH2 0xA66 JUMPI PUSH1 0x5 DUP6 ADD SLOAD PUSH1 0x0 SWAP1 PUSH1 0x1 PUSH1 0x1 PUSH1 0xA0 SHL SUB PUSH32 0x0 DUP2 AND SWAP2 AND SUB PUSH2 0xA51 JUMPI PUSH1 0x7 SLOAD PUSH2 0xA40 DUP5 PUSH8 0xDE0B6B3A7640000 PUSH2 0x16B7 JUMP JUMPDEST PUSH2 0xA4A SWAP2 SWAP1 PUSH2 0x1702 JUMP JUMPDEST SWAP1 POP PUSH2 0xA54 JUMP JUMPDEST POP DUP2 JUMPDEST PUSH2 0xA5E DUP2 DUP4 PUSH2 0x1716 JUMP JUMPDEST SWAP2 POP POP PUSH2 0xB03 JUMP JUMPDEST PUSH1 0x0 DUP3 SLT ISZERO PUSH2 0xB03 JUMPI PUSH1 0x5 DUP6 ADD SLOAD PUSH1 0x0 SWAP1 PUSH1 0x1 PUSH1 0x1 PUSH1 0xA0 SHL SUB PUSH32 0x0 DUP2 AND SWAP2 AND SUB PUSH2 0xAD8 JUMPI PUSH1 0x7 SLOAD PUSH2 0xAB5 DUP5 PUSH2 0x1750 JUMP JUMPDEST PUSH2 0xAC7 SWAP1 PUSH8 0xDE0B6B3A7640000 PUSH2 0x16B7 JUMP JUMPDEST PUSH2 0xAD1 SWAP2 SWAP1 PUSH2 0x1702 JUMP JUMPDEST SWAP1 POP PUSH2 0xAE4 JUMP JUMPDEST PUSH2 0xAE1 DUP4 PUSH2 0x1750 JUMP JUMPDEST SWAP1 POP JUMPDEST DUP2 DUP2 LT PUSH2 0xAF4 JUMPI PUSH1 0x0 SWAP2 POP PUSH2 0xB01 JUMP JUMPDEST PUSH2 0xAFE DUP2 DUP4 PUSH2 0x17CA JUMP JUMPDEST SWAP2 POP JUMPDEST POP JUMPDEST DUP1 ISZERO PUSH2 0xB88 JUMPI PUSH1 0x5 DUP6 ADD SLOAD PUSH1 0x1 DUP7 ADD SLOAD PUSH1 0x40 MLOAD PUSH4 0xA9059CBB PUSH1 0xE0 SHL DUP2 MSTORE PUSH1 0x1 PUSH1 0x1 PUSH1 0xA0 SHL SUB SWAP2 DUP3 AND PUSH1 0x4 DUP3 ADD MSTORE PUSH1 0x24 DUP2 ADD DUP5 SWAP1 MSTORE SWAP2 AND SWAP1 PUSH4 0xA9059CBB SWAP1 PUSH1 0x44 ADD PUSH1 0x20 PUSH1 0x40 MLOAD DUP1 DUP4 SUB DUP2 PUSH1 0x0 DUP8 GAS CALL ISZERO DUP1 ISZERO PUSH2 0xB62 JUMPI RETURNDATASIZE PUSH1 0x0 DUP1 RETURNDATACOPY RETURNDATASIZE PUSH1 0x0 REVERT JUMPDEST POP POP POP POP PUSH1 0x40 MLOAD RETURNDATASIZE PUSH1 0x1F NOT PUSH1 0x1F DUP3 ADD AND DUP3 ADD DUP1 PUSH1 0x40 MSTORE POP DUP2 ADD SWAP1 PUSH2 0xB86 SWAP2 SWAP1 PUSH2 0x17DD JUMP JUMPDEST POP JUMPDEST PUSH1 0x1 DUP6 ADD SLOAD PUSH1 0x40 DUP1 MLOAD DUP5 DUP2 MSTORE PUSH1 0x20 DUP2 ADD DUP8 SWAP1 MSTORE PUSH1 0x1 PUSH1 0x1 PUSH1 0xA0 SHL SUB SWAP1 SWAP3 AND SWAP2 DUP9 SWAP2 PUSH32 0x3EE724753FFA269797038DA196DCCD855008C0450838FF1D01BB51FBFDD77893 SWAP2 ADD PUSH1 0x40 MLOAD DUP1 SWAP2 SUB SWAP1 LOG3 POP POP POP POP POP PUSH2 0xBE3 PUSH1 0x1 PUSH1 0x0 SSTORE JUMP JUMPDEST POP JUMP JUMPDEST PUSH2 0xBEE PUSH2 0x12E9 JUMP JUMPDEST PUSH2 0xBF8 PUSH1 0x0 PUSH2 0x1316 JUMP JUMPDEST JUMP JUMPDEST PUSH2 0xC02 PUSH2 0x12BF JUMP JUMPDEST DUP1 PUSH1 0x7 EQ DUP1 PUSH2 0xC11 JUMPI POP DUP1 PUSH1 0xE EQ JUMPDEST DUP1 PUSH2 0xC1C JUMPI POP DUP1 PUSH1 0x1E EQ JUMPDEST PUSH2 0xC60 JUMPI PUSH1 0x40 MLOAD PUSH3 0x461BCD PUSH1 0xE5 SHL DUP2 MSTORE PUSH1 0x20 PUSH1 0x4 DUP3 ADD MSTORE PUSH1 0x15 PUSH1 0x24 DUP3 ADD MSTORE PUSH21 0x125B9D985B1A5908195E1C1A5C9E481C195C9A5BD9 PUSH1 0x5A SHL PUSH1 0x44 DUP3 ADD MSTORE PUSH1 0x64 ADD PUSH2 0x857 JUMP JUMPDEST PUSH2 0x190 DUP5 LT ISZERO DUP1 ISZERO PUSH2 0xC74 JUMPI POP PUSH2 0x960 DUP5 GT ISZERO JUMPDEST PUSH2 0xCCC JUMPI PUSH1 0x40 MLOAD PUSH3 0x461BCD PUSH1 0xE5 SHL DUP2 MSTORE PUSH1 0x20 PUSH1 0x4 DUP3 ADD MSTORE PUSH1 0x24 DUP1 DUP3 ADD MSTORE PUSH32 0x537472696B65207072696365206F7574206F662072616E67652028342D323420 PUSH1 0x44 DUP3 ADD MSTORE PUSH4 0x6D706829 PUSH1 0xE0 SHL PUSH1 0x64 DUP3 ADD MSTORE PUSH1 0x84 ADD PUSH2 0x857 JUMP JUMPDEST PUSH9 0x56BC75E2D63100000 DUP4 LT ISZERO PUSH2 0xD25 JUMPI PUSH1 0x40 MLOAD PUSH3 0x461BCD PUSH1 0xE5 SHL DUP2 MSTORE PUSH1 0x20 PUSH1 0x4 DUP3 ADD MSTORE PUSH1 0x1B PUSH1 0x24 DUP3 ADD MSTORE PUSH32 0x4D696E696D756D20706F736974696F6E2073697A653A20243130300000000000 PUSH1 0x44 DUP3 ADD MSTORE PUSH1 0x64 ADD PUSH2 0x857 JUMP JUMPDEST PUSH32 0x0 PUSH1 0x1 PUSH1 0x1 PUSH1 0xA0 SHL SUB AND DUP3 PUSH1 0x1 PUSH1 0x1 PUSH1 0xA0 SHL SUB AND EQ DUP1 PUSH2 0xD96 JUMPI POP PUSH32 0x0 PUSH1 0x1 PUSH1 0x1 PUSH1 0xA0 SHL SUB AND DUP3 PUSH1 0x1 PUSH1 0x1 PUSH1 0xA0 SHL SUB AND EQ JUMPDEST PUSH2 0xDE2 JUMPI PUSH1 0x40 MLOAD PUSH3 0x461BCD PUSH1 0xE5 SHL DUP2 MSTORE PUSH1 0x20 PUSH1 0x4 DUP3 ADD MSTORE PUSH1 0x18 PUSH1 0x24 DUP3 ADD MSTORE PUSH32 0x496E76616C696420636F6C6C61746572616C20746F6B656E0000000000000000 PUSH1 0x44 DUP3 ADD MSTORE PUSH1 0x64 ADD PUSH2 0x857 JUMP JUMPDEST PUSH2 0xDEA PUSH2 0x563 JUMP JUMPDEST PUSH1 0x0 PUSH1 0x64 PUSH2 0xDF9 PUSH1 0x14 DUP7 PUSH2 0x16B7 JUMP JUMPDEST PUSH2 0xE03 SWAP2 SWAP1 PUSH2 0x1702 JUMP JUMPDEST SWAP1 POP PUSH1 0x0 PUSH32 0x0 PUSH1 0x1 PUSH1 0x1 PUSH1 0xA0 SHL SUB AND DUP5 PUSH1 0x1 PUSH1 0x1 PUSH1 0xA0 SHL SUB AND SUB PUSH2 0xE66 JUMPI PUSH1 0x7 SLOAD PUSH2 0xE55 DUP4 PUSH8 0xDE0B6B3A7640000 PUSH2 0x16B7 JUMP JUMPDEST PUSH2 0xE5F SWAP2 SWAP1 PUSH2 0x1702 JUMP JUMPDEST SWAP1 POP PUSH2 0xE69 JUMP JUMPDEST POP DUP1 JUMPDEST PUSH1 0x40 MLOAD PUSH4 0x23B872DD PUSH1 0xE0 SHL DUP2 MSTORE CALLER PUSH1 0x4 DUP3 ADD MSTORE ADDRESS PUSH1 0x24 DUP3 ADD MSTORE PUSH1 0x44 DUP2 ADD DUP3 SWAP1 MSTORE PUSH1 0x1 PUSH1 0x1 PUSH1 0xA0 SHL SUB DUP6 AND SWAP1 PUSH4 0x23B872DD SWAP1 PUSH1 0x64 ADD PUSH1 0x20 PUSH1 0x40 MLOAD DUP1 DUP4 SUB DUP2 PUSH1 0x0 DUP8 GAS CALL ISZERO DUP1 ISZERO PUSH2 0xEBC JUMPI RETURNDATASIZE PUSH1 0x0 DUP1 RETURNDATACOPY RETURNDATASIZE PUSH1 0x0 REVERT JUMPDEST POP POP POP POP PUSH1 0x40 MLOAD RETURNDATASIZE PUSH1 0x1F NOT PUSH1 0x1F DUP3 ADD AND DUP3 ADD DUP1 PUSH1 0x40 MSTORE POP DUP2 ADD SWAP1 PUSH2 0xEE0 SWAP2 SWAP1 PUSH2 0x17DD JUMP JUMPDEST POP PUSH1 0x5 SLOAD PUSH1 0x40 MLOAD PUSH12 0xFFFFFFFFFFFFFFFFFFFFFFFF NOT CALLER PUSH1 0x60 SHL AND PUSH1 0x20 DUP3 ADD MSTORE PUSH1 0x34 DUP2 ADD DUP9 SWAP1 MSTORE PUSH1 0x54 DUP2 ADD DUP8 SWAP1 MSTORE TIMESTAMP PUSH1 0x74 DUP3 ADD MSTORE PUSH1 0x94 DUP2 ADD SWAP2 SWAP1 SWAP2 MSTORE PUSH1 0x0 SWAP1 PUSH1 0xB4 ADD PUSH1 0x40 MLOAD PUSH1 0x20 DUP2 DUP4 SUB SUB DUP2 MSTORE SWAP1 PUSH1 0x40 MSTORE DUP1 MLOAD SWAP1 PUSH1 0x20 ADD KECCAK256 SWAP1 POP PUSH1 0x0 DUP5 PUSH3 0x15180 PUSH2 0xF4A SWAP2 SWAP1 PUSH2 0x16B7 JUMP JUMPDEST PUSH2 0xF54 SWAP1 TIMESTAMP PUSH2 0x1716 JUMP JUMPDEST SWAP1 POP PUSH1 0x40 MLOAD DUP1 PUSH2 0x160 ADD PUSH1 0x40 MSTORE DUP1 DUP4 DUP2 MSTORE PUSH1 0x20 ADD CALLER PUSH1 0x1 PUSH1 0x1 PUSH1 0xA0 SHL SUB AND DUP2 MSTORE PUSH1 0x20 ADD DUP11 ISZERO ISZERO DUP2 MSTORE PUSH1 0x20 ADD DUP10 DUP2 MSTORE PUSH1 0x20 ADD DUP9 DUP2 MSTORE PUSH1 0x20 ADD DUP5 DUP2 MSTORE PUSH1 0x20 ADD DUP8 PUSH1 0x1 PUSH1 0x1 PUSH1 0xA0 SHL SUB AND DUP2 MSTORE PUSH1 0x20 ADD DUP3 DUP2 MSTORE PUSH1 0x20 ADD PUSH1 0x0 ISZERO ISZERO DUP2 MSTORE PUSH1 0x20 ADD PUSH1 0x0 DUP2 MSTORE PUSH1 0x20 ADD TIMESTAMP DUP2 MSTORE POP PUSH1 0x3 PUSH1 0x0 DUP5 DUP2 MSTORE PUSH1 0x20 ADD SWAP1 DUP2 MSTORE PUSH1 0x20 ADD PUSH1 0x0 KECCAK256 PUSH1 0x0 DUP3 ADD MLOAD DUP2 PUSH1 0x0 ADD SSTORE PUSH1 0x20 DUP3 ADD MLOAD DUP2 PUSH1 0x1 ADD PUSH1 0x0 PUSH2 0x100 EXP DUP2 SLOAD DUP2 PUSH1 0x1 PUSH1 0x1 PUSH1 0xA0 SHL SUB MUL NOT AND SWAP1 DUP4 PUSH1 0x1 PUSH1 0x1 PUSH1 0xA0 SHL SUB AND MUL OR SWAP1 SSTORE POP PUSH1 0x40 DUP3 ADD MLOAD DUP2 PUSH1 0x1 ADD PUSH1 0x14 PUSH2 0x100 EXP DUP2 SLOAD DUP2 PUSH1 0xFF MUL NOT AND SWAP1 DUP4 ISZERO ISZERO MUL OR SWAP1 SSTORE POP PUSH1 0x60 DUP3 ADD MLOAD DUP2 PUSH1 0x2 ADD SSTORE PUSH1 0x80 DUP3 ADD MLOAD DUP2 PUSH1 0x3 ADD SSTORE PUSH1 0xA0 DUP3 ADD MLOAD DUP2 PUSH1 0x4 ADD SSTORE PUSH1 0xC0 DUP3 ADD MLOAD DUP2 PUSH1 0x5 ADD PUSH1 0x0 PUSH2 0x100 EXP DUP2 SLOAD DUP2 PUSH1 0x1 PUSH1 0x1 PUSH1 0xA0 SHL SUB MUL NOT AND SWAP1 DUP4 PUSH1 0x1 PUSH1 0x1 PUSH1 0xA0 SHL SUB AND MUL OR SWAP1 SSTORE POP PUSH1 0xE0 DUP3 ADD MLOAD DUP2 PUSH1 0x6 ADD SSTORE PUSH2 0x100 DUP3 ADD MLOAD DUP2 PUSH1 0x7 ADD PUSH1 0x0 PUSH2 0x100 EXP DUP2 SLOAD DUP2 PUSH1 0xFF MUL NOT AND SWAP1 DUP4 ISZERO ISZERO MUL OR SWAP1 SSTORE POP PUSH2 0x120 DUP3 ADD MLOAD DUP2 PUSH1 0x8 ADD SSTORE PUSH2 0x140 DUP3 ADD MLOAD DUP2 PUSH1 0x9 ADD SSTORE SWAP1 POP POP PUSH1 0x4 PUSH1 0x0 CALLER PUSH1 0x1 PUSH1 0x1 PUSH1 0xA0 SHL SUB AND PUSH1 0x1 PUSH1 0x1 PUSH1 0xA0 SHL SUB AND DUP2 MSTORE PUSH1 0x20 ADD SWAP1 DUP2 MSTORE PUSH1 0x20 ADD PUSH1 0x0 KECCAK256 DUP3 SWAP1 DUP1 PUSH1 0x1 DUP2 SLOAD ADD DUP1 DUP3 SSTORE DUP1 SWAP2 POP POP PUSH1 0x1 SWAP1 SUB SWAP1 PUSH1 0x0 MSTORE PUSH1 0x20 PUSH1 0x0 KECCAK256 ADD PUSH1 0x0 SWAP1 SWAP2 SWAP1 SWAP2 SWAP1 SWAP2 POP SSTORE PUSH1 0x5 DUP3 SWAP1 DUP1 PUSH1 0x1 DUP2 SLOAD ADD DUP1 DUP3 SSTORE DUP1 SWAP2 POP POP PUSH1 0x1 SWAP1 SUB SWAP1 PUSH1 0x0 MSTORE PUSH1 0x20 PUSH1 0x0 KECCAK256 ADD PUSH1 0x0 SWAP1 SWAP2 SWAP1 SWAP2 SWAP1 SWAP2 POP SSTORE CALLER PUSH1 0x1 PUSH1 0x1 PUSH1 0xA0 SHL SUB AND DUP3 PUSH32 0x360A66541EA2109E656B35513352974421C4B4AF95587F012FA35E83775BD82C DUP12 DUP12 DUP12 DUP9 DUP13 DUP9 PUSH1 0x40 MLOAD PUSH2 0x119A SWAP7 SWAP6 SWAP5 SWAP4 SWAP3 SWAP2 SWAP1 SWAP6 ISZERO ISZERO DUP7 MSTORE PUSH1 0x20 DUP7 ADD SWAP5 SWAP1 SWAP5 MSTORE PUSH1 0x40 DUP6 ADD SWAP3 SWAP1 SWAP3 MSTORE PUSH1 0x60 DUP5 ADD MSTORE PUSH1 0x1 PUSH1 0x1 PUSH1 0xA0 SHL SUB AND PUSH1 0x80 DUP4 ADD MSTORE PUSH1 0xA0 DUP3 ADD MSTORE PUSH1 0xC0 ADD SWAP1 JUMP JUMPDEST PUSH1 0x40 MLOAD DUP1 SWAP2 SUB SWAP1 LOG3 POP POP POP POP PUSH2 0x11B0 PUSH1 0x1 PUSH1 0x0 SSTORE JUMP JUMPDEST POP POP POP POP POP JUMP JUMPDEST PUSH1 0x5 DUP2 DUP2 SLOAD DUP2 LT PUSH2 0x11C7 JUMPI PUSH1 0x0 DUP1 REVERT JUMPDEST PUSH1 0x0 SWAP2 DUP3 MSTORE PUSH1 0x20 SWAP1 SWAP2 KECCAK256 ADD SLOAD SWAP1 POP DUP2 JUMP JUMPDEST PUSH2 0x11E0 PUSH2 0x12E9 JUMP JUMPDEST PUSH32 0x0 PUSH1 0x1 PUSH1 0x1 PUSH1 0xA0 SHL SUB AND PUSH4 0xC3E57B44 PUSH1 0x40 MLOAD DUP2 PUSH4 0xFFFFFFFF AND PUSH1 0xE0 SHL DUP2 MSTORE PUSH1 0x4 ADD PUSH1 0x20 PUSH1 0x40 MLOAD DUP1 DUP4 SUB DUP2 DUP7 GAS STATICCALL ISZERO DUP1 ISZERO PUSH2 0x123E JUMPI RETURNDATASIZE PUSH1 0x0 DUP1 RETURNDATACOPY RETURNDATASIZE PUSH1 0x0 REVERT JUMPDEST POP POP POP POP PUSH1 0x40 MLOAD RETURNDATASIZE PUSH1 0x1F NOT PUSH1 0x1F DUP3 ADD AND DUP3 ADD DUP1 PUSH1 0x40 MSTORE POP DUP2 ADD SWAP1 PUSH2 0x1262 SWAP2 SWAP1 PUSH2 0x17FA JUMP JUMPDEST PUSH1 0x2 DUP1 SLOAD PUSH1 0x1 PUSH1 0x1 PUSH1 0xA0 SHL SUB NOT AND PUSH1 0x1 PUSH1 0x1 PUSH1 0xA0 SHL SUB SWAP3 SWAP1 SWAP3 AND SWAP2 SWAP1 SWAP2 OR SWAP1 SSTORE JUMP JUMPDEST PUSH2 0x128C PUSH2 0x12E9 JUMP JUMPDEST PUSH1 0x1 PUSH1 0x1 PUSH1 0xA0 SHL SUB DUP2 AND PUSH2 0x12B6 JUMPI PUSH1 0x40 MLOAD PUSH4 0x1E4FBDF7 PUSH1 0xE0 SHL DUP2 MSTORE PUSH1 0x0 PUSH1 0x4 DUP3 ADD MSTORE PUSH1 0x24 ADD PUSH2 0x857 JUMP JUMPDEST PUSH2 0xBE3 DUP2 PUSH2 0x1316 JUMP JUMPDEST PUSH1 0x2 PUSH1 0x0 SLOAD SUB PUSH2 0x12E2 JUMPI PUSH1 0x40 MLOAD PUSH4 0x3EE5AEB5 PUSH1 0xE0 SHL DUP2 MSTORE PUSH1 0x4 ADD PUSH1 0x40 MLOAD DUP1 SWAP2 SUB SWAP1 REVERT JUMPDEST PUSH1 0x2 PUSH1 0x0 SSTORE JUMP JUMPDEST PUSH1 0x1 SLOAD PUSH1 0x1 PUSH1 0x1 PUSH1 0xA0 SHL SUB AND CALLER EQ PUSH2 0xBF8 JUMPI PUSH1 0x40 MLOAD PUSH4 0x118CDAA7 PUSH1 0xE0 SHL DUP2 MSTORE CALLER PUSH1 0x4 DUP3 ADD MSTORE PUSH1 0x24 ADD PUSH2 0x857 JUMP JUMPDEST PUSH1 0x1 DUP1 SLOAD PUSH1 0x1 PUSH1 0x1 PUSH1 0xA0 SHL SUB DUP4 DUP2 AND PUSH1 0x1 PUSH1 0x1 PUSH1 0xA0 SHL SUB NOT DUP4 AND DUP2 OR SWAP1 SWAP4 SSTORE PUSH1 0x40 MLOAD SWAP2 AND SWAP2 SWAP1 DUP3 SWAP1 PUSH32 0x8BE0079C531659141344CD1FD0A4F28419497F9722A3DAAFE3B4186F6B6457E0 SWAP1 PUSH1 0x0 SWAP1 LOG3 POP POP JUMP JUMPDEST PUSH1 0x20 DUP1 DUP3 MSTORE DUP3 MLOAD DUP3 DUP3 ADD DUP2 SWAP1 MSTORE PUSH1 0x0 SWAP2 SWAP1 DUP5 DUP3 ADD SWAP1 PUSH1 0x40 DUP6 ADD SWAP1 DUP5 JUMPDEST DUP2 DUP2 LT ISZERO PUSH2 0x13A0 JUMPI DUP4 MLOAD DUP4 MSTORE SWAP3 DUP5 ADD SWAP3 SWAP2 DUP5 ADD SWAP2 PUSH1 0x1 ADD PUSH2 0x1384 JUMP JUMPDEST POP SWAP1 SWAP7 SWAP6 POP POP POP POP POP POP JUMP JUMPDEST PUSH1 0x1 PUSH1 0x1 PUSH1 0xA0 SHL SUB DUP2 AND DUP2 EQ PUSH2 0xBE3 JUMPI PUSH1 0x0 DUP1 REVERT JUMPDEST PUSH1 0x0 PUSH1 0x20 DUP3 DUP5 SUB SLT ISZERO PUSH2 0x13D3 JUMPI PUSH1 0x0 DUP1 REVERT JUMPDEST DUP2 CALLDATALOAD PUSH2 0x13DE DUP2 PUSH2 0x13AC JUMP JUMPDEST SWAP4 SWAP3 POP POP POP JUMP JUMPDEST PUSH1 0x0 PUSH1 0x20 DUP3 DUP5 SUB SLT ISZERO PUSH2 0x13F7 JUMPI PUSH1 0x0 DUP1 REVERT JUMPDEST POP CALLDATALOAD SWAP2 SWAP1 POP JUMP JUMPDEST PUSH1 0x0 DUP1 PUSH1 0x40 DUP4 DUP6 SUB SLT ISZERO PUSH2 0x1411 JUMPI PUSH1 0x0 DUP1 REVERT JUMPDEST DUP3 CALLDATALOAD PUSH2 0x141C DUP2 PUSH2 0x13AC JUMP JUMPDEST SWAP5 PUSH1 0x20 SWAP4 SWAP1 SWAP4 ADD CALLDATALOAD SWAP4 POP POP POP JUMP JUMPDEST DUP1 ISZERO ISZERO DUP2 EQ PUSH2 0xBE3 JUMPI PUSH1 0x0 DUP1 REVERT JUMPDEST PUSH1 0x0 DUP1 PUSH1 0x0 DUP1 PUSH1 0x0 PUSH1 0xA0 DUP7 DUP9 SUB SLT ISZERO PUSH2 0x1450 JUMPI PUSH1 0x0 DUP1 REVERT JUMPDEST DUP6 CALLDATALOAD PUSH2 0x145B DUP2 PUSH2 0x142A JUMP JUMPDEST SWAP5 POP PUSH1 0x20 DUP7 ADD CALLDATALOAD SWAP4 POP PUSH1 0x40 DUP7 ADD CALLDATALOAD SWAP3 POP PUSH1 0x60 DUP7 ADD CALLDATALOAD PUSH2 0x1479 DUP2 PUSH2 0x13AC JUMP JUMPDEST SWAP5 SWAP8 SWAP4 SWAP7 POP SWAP2 SWAP5 PUSH1 0x80 ADD CALLDATALOAD SWAP3 SWAP2 POP POP JUMP JUMPDEST DUP2 MLOAD DUP2 MSTORE PUSH1 0x20 DUP1 DUP4 ADD MLOAD PUSH2 0x160 DUP4 ADD SWAP2 PUSH2 0x14AE SWAP1 DUP5 ADD DUP3 PUSH1 0x1 PUSH1 0x1 PUSH1 0xA0 SHL SUB AND SWAP1 MSTORE JUMP JUMPDEST POP PUSH1 0x40 DUP4 ADD MLOAD PUSH2 0x14C2 PUSH1 0x40 DUP5 ADD DUP3 ISZERO ISZERO SWAP1 MSTORE JUMP JUMPDEST POP PUSH1 0x60 DUP4 ADD MLOAD PUSH1 0x60 DUP4 ADD MSTORE PUSH1 0x80 DUP4 ADD MLOAD PUSH1 0x80 DUP4 ADD MSTORE PUSH1 0xA0 DUP4 ADD MLOAD PUSH1 0xA0 DUP4 ADD MSTORE PUSH1 0xC0 DUP4 ADD MLOAD PUSH2 0x14FB PUSH1 0xC0 DUP5 ADD DUP3 PUSH1 0x1 PUSH1 0x1 PUSH1 0xA0 SHL SUB AND SWAP1 MSTORE JUMP JUMPDEST POP PUSH1 0xE0 DUP4 ADD MLOAD PUSH1 0xE0 DUP4 ADD MSTORE PUSH2 0x100 DUP1 DUP5 ADD MLOAD PUSH2 0x151A DUP3 DUP6 ADD DUP3 ISZERO ISZERO SWAP1 MSTORE JUMP JUMPDEST POP POP PUSH2 0x120 DUP4 DUP2 ADD MLOAD SWAP1 DUP4 ADD MSTORE PUSH2 0x140 SWAP3 DUP4 ADD MLOAD SWAP3 SWAP1 SWAP2 ADD SWAP2 SWAP1 SWAP2 MSTORE SWAP1 JUMP JUMPDEST PUSH1 0x0 DUP1 PUSH1 0x0 PUSH1 0x60 DUP5 DUP7 SUB SLT ISZERO PUSH2 0x154E JUMPI PUSH1 0x0 DUP1 REVERT JUMPDEST DUP4 MLOAD SWAP3 POP PUSH1 0x20 DUP5 ADD MLOAD DUP1 PUSH1 0x0 SIGNEXTEND DUP2 EQ PUSH2 0x1566 JUMPI PUSH1 0x0 DUP1 REVERT JUMPDEST PUSH1 0x40 DUP6 ADD MLOAD SWAP1 SWAP3 POP PUSH8 0xFFFFFFFFFFFFFFFF DUP2 AND DUP2 EQ PUSH2 0x1584 JUMPI PUSH1 0x0 DUP1 REVERT JUMPDEST DUP1 SWAP2 POP POP SWAP3 POP SWAP3 POP SWAP3 JUMP JUMPDEST PUSH4 0x4E487B71 PUSH1 0xE0 SHL PUSH1 0x0 MSTORE PUSH1 0x11 PUSH1 0x4 MSTORE PUSH1 0x24 PUSH1 0x0 REVERT JUMPDEST PUSH1 0xFF DUP3 DUP2 AND DUP3 DUP3 AND SUB SWAP1 DUP2 GT ISZERO PUSH2 0x15BE JUMPI PUSH2 0x15BE PUSH2 0x158F JUMP JUMPDEST SWAP3 SWAP2 POP POP JUMP JUMPDEST PUSH1 0x1 DUP2 DUP2 JUMPDEST DUP1 DUP6 GT ISZERO PUSH2 0x15FF JUMPI DUP2 PUSH1 0x0 NOT DIV DUP3 GT ISZERO PUSH2 0x15E5 JUMPI PUSH2 0x15E5 PUSH2 0x158F JUMP JUMPDEST DUP1 DUP6 AND ISZERO PUSH2 0x15F2 JUMPI SWAP2 DUP2 MUL SWAP2 JUMPDEST SWAP4 DUP5 SHR SWAP4 SWAP1 DUP1 MUL SWAP1 PUSH2 0x15C9 JUMP JUMPDEST POP SWAP3 POP SWAP3 SWAP1 POP JUMP JUMPDEST PUSH1 0x0 DUP3 PUSH2 0x1616 JUMPI POP PUSH1 0x1 PUSH2 0x15BE JUMP JUMPDEST DUP2 PUSH2 0x1623 JUMPI POP PUSH1 0x0 PUSH2 0x15BE JUMP JUMPDEST DUP2 PUSH1 0x1 DUP2 EQ PUSH2 0x1639 JUMPI PUSH1 0x2 DUP2 EQ PUSH2 0x1643 JUMPI PUSH2 0x165F JUMP JUMPDEST PUSH1 0x1 SWAP2 POP POP PUSH2 0x15BE JUMP JUMPDEST PUSH1 0xFF DUP5 GT ISZERO PUSH2 0x1654 JUMPI PUSH2 0x1654 PUSH2 0x158F JUMP JUMPDEST POP POP PUSH1 0x1 DUP3 SHL PUSH2 0x15BE JUMP JUMPDEST POP PUSH1 0x20 DUP4 LT PUSH2 0x133 DUP4 LT AND PUSH1 0x4E DUP5 LT PUSH1 0xB DUP5 LT AND OR ISZERO PUSH2 0x1682 JUMPI POP DUP2 DUP2 EXP PUSH2 0x15BE JUMP JUMPDEST PUSH2 0x168C DUP4 DUP4 PUSH2 0x15C4 JUMP JUMPDEST DUP1 PUSH1 0x0 NOT DIV DUP3 GT ISZERO PUSH2 0x16A0 JUMPI PUSH2 0x16A0 PUSH2 0x158F JUMP JUMPDEST MUL SWAP4 SWAP3 POP POP POP JUMP JUMPDEST PUSH1 0x0 PUSH2 0x13DE PUSH1 0xFF DUP5 AND DUP4 PUSH2 0x1607 JUMP JUMPDEST DUP1 DUP3 MUL DUP2 ISZERO DUP3 DUP3 DIV DUP5 EQ OR PUSH2 0x15BE JUMPI PUSH2 0x15BE PUSH2 0x158F JUMP JUMPDEST PUSH1 0x0 DUP2 DUP2 SIGNEXTEND PUSH1 0x80 DUP2 ADD PUSH2 0x16E3 JUMPI PUSH2 0x16E3 PUSH2 0x158F JUMP JUMPDEST PUSH1 0x0 SUB SWAP3 SWAP2 POP POP JUMP JUMPDEST PUSH4 0x4E487B71 PUSH1 0xE0 SHL PUSH1 0x0 MSTORE PUSH1 0x12 PUSH1 0x4 MSTORE PUSH1 0x24 PUSH1 0x0 REVERT JUMPDEST PUSH1 0x0 DUP3 PUSH2 0x1711 JUMPI PUSH2 0x1711 PUSH2 0x16EC JUMP JUMPDEST POP DIV SWAP1 JUMP JUMPDEST DUP1 DUP3 ADD DUP1 DUP3 GT ISZERO PUSH2 0x15BE JUMPI PUSH2 0x15BE PUSH2 0x158F JUMP JUMPDEST DUP2 DUP2 SUB PUSH1 0x0 DUP4 SLT DUP1 ISZERO DUP4 DUP4 SGT AND DUP4 DUP4 SLT DUP3 AND OR ISZERO PUSH2 0x1749 JUMPI PUSH2 0x1749 PUSH2 0x158F JUMP JUMPDEST POP SWAP3 SWAP2 POP POP JUMP JUMPDEST PUSH1 0x0 PUSH1 0x1 PUSH1 0xFF SHL DUP3 ADD PUSH2 0x1765 JUMPI PUSH2 0x1765 PUSH2 0x158F JUMP JUMPDEST POP PUSH1 0x0 SUB SWAP1 JUMP JUMPDEST DUP1 DUP3 MUL PUSH1 0x0 DUP3 SLT PUSH1 0x1 PUSH1 0xFF SHL DUP5 EQ AND ISZERO PUSH2 0x1788 JUMPI PUSH2 0x1788 PUSH2 0x158F JUMP JUMPDEST DUP2 DUP2 SDIV DUP4 EQ DUP3 ISZERO OR PUSH2 0x15BE JUMPI PUSH2 0x15BE PUSH2 0x158F JUMP JUMPDEST PUSH1 0x0 DUP3 PUSH2 0x17AB JUMPI PUSH2 0x17AB PUSH2 0x16EC JUMP JUMPDEST PUSH1 0x1 PUSH1 0xFF SHL DUP3 EQ PUSH1 0x0 NOT DUP5 EQ AND ISZERO PUSH2 0x17C5 JUMPI PUSH2 0x17C5 PUSH2 0x158F JUMP JUMPDEST POP SDIV SWAP1 JUMP JUMPDEST DUP2 DUP2 SUB DUP2 DUP2 GT ISZERO PUSH2 0x15BE JUMPI PUSH2 0x15BE PUSH2 0x158F JUMP JUMPDEST PUSH1 0x0 PUSH1 0x20 DUP3 DUP5 SUB SLT ISZERO PUSH2 0x17EF JUMPI PUSH1 0x0 DUP1 REVERT JUMPDEST DUP2 MLOAD PUSH2 0x13DE DUP2 PUSH2 0x142A JUMP JUMPDEST PUSH1 0x0 PUSH1 0x20 DUP3 DUP5 SUB SLT ISZERO PUSH2 0x180C JUMPI PUSH1 0x0 DUP1 REVERT JUMPDEST DUP2 MLOAD PUSH2 0x13DE DUP2 PUSH2 0x13AC JUMP INVALID LOG2 PUSH5 0x6970667358 0x22 SLT KECCAK256 DUP4 0x1F SWAP11 0xC3 0xAB NOT EXTCODECOPY 0xA7 PUSH9 0x2C9ED2F48C1D763343 KECCAK256 0xD1 0xE6 RETURNDATACOPY SWAP2 TIMESTAMP PUSH29 0xBD632045FE107D64736F6C634300081400330000000000000000000000 "},"methodIdentifiers":{"FLR_USD_FEED_ID()":"69f161c4","MARGIN_REQUIREMENT()":"5739ce25","SETTLEMENT_WINDOW()":"3deb6cae","WIND_SPEED_FEED_ID()":"cd1e4b2b","allContracts(uint256)":"e54e26b9","contractRegistry()":"abf410e5","createWindFuture(bool,uint256,uint256,address,uint256)":"84e0648b","flrToken()":"985d73db","ftsoV2()":"25e89883","getAllContracts()":"18d3ce96","getContract(bytes32)":"e16c7d98","getMarketData()":"4d96264c","getUserPositions(address)":"2a6bc2dd","marketData()":"b945b527","owner()":"8da5cb5b","renounceOwnership()":"715018a6","settleFuture(bytes32)":"6ce020b8","transferOwnership(address)":"f2fde38b","updateFtsoInterface()":"ea015e6f","updateMarketData()":"0abc7b56","usdtToken()":"a98ad46c","userPositions(address,uint256)":"5e1b4d99","windFutures(bytes32)":"556517b1"}}}}}