{
  "_format": "hh-sol-artifact-1",
  "contractName": "CommunityStaking",
  "sourceName": "contracts/CommunityStaking.sol",
  "abi": [
    {
      "inputs": [],
      "stateMutability": "nonpayable",
      "type": "constructor"
    },
    {
      "inputs": [],
      "name": "EnforcedPause",
      "type": "error"
    },
    {
      "inputs": [],
      "name": "ExpectedPause",
      "type": "error"
    },
    {
      "inputs": [
        {
          "internalType": "address",
          "name": "owner",
          "type": "address"
        }
      ],
      "name": "OwnableInvalidOwner",
      "type": "error"
    },
    {
      "inputs": [
        {
          "internalType": "address",
          "name": "account",
          "type": "address"
        }
      ],
      "name": "OwnableUnauthorizedAccount",
      "type": "error"
    },
    {
      "inputs": [],
      "name": "ReentrancyGuardReentrantCall",
      "type": "error"
    },
    {
      "anonymous": false,
      "inputs": [
        {
          "indexed": true,
          "internalType": "address",
          "name": "user",
          "type": "address"
        },
        {
          "indexed": true,
          "internalType": "uint256",
          "name": "poolId",
          "type": "uint256"
        },
        {
          "indexed": false,
          "internalType": "uint256",
          "name": "amount",
          "type": "uint256"
        }
      ],
      "name": "EmergencyWithdraw",
      "type": "event"
    },
    {
      "anonymous": false,
      "inputs": [
        {
          "indexed": true,
          "internalType": "address",
          "name": "previousOwner",
          "type": "address"
        },
        {
          "indexed": true,
          "internalType": "address",
          "name": "newOwner",
          "type": "address"
        }
      ],
      "name": "OwnershipTransferred",
      "type": "event"
    },
    {
      "anonymous": false,
      "inputs": [
        {
          "indexed": false,
          "internalType": "address",
          "name": "account",
          "type": "address"
        }
      ],
      "name": "Paused",
      "type": "event"
    },
    {
      "anonymous": false,
      "inputs": [
        {
          "indexed": true,
          "internalType": "uint256",
          "name": "poolId",
          "type": "uint256"
        },
        {
          "indexed": false,
          "internalType": "address",
          "name": "stakingToken",
          "type": "address"
        },
        {
          "indexed": false,
          "internalType": "address",
          "name": "rewardToken",
          "type": "address"
        },
        {
          "indexed": false,
          "internalType": "uint256",
          "name": "rewardRate",
          "type": "uint256"
        }
      ],
      "name": "PoolCreated",
      "type": "event"
    },
    {
      "anonymous": false,
      "inputs": [
        {
          "indexed": true,
          "internalType": "uint256",
          "name": "poolId",
          "type": "uint256"
        },
        {
          "indexed": false,
          "internalType": "uint256",
          "name": "newRewardRate",
          "type": "uint256"
        }
      ],
      "name": "PoolUpdated",
      "type": "event"
    },
    {
      "anonymous": false,
      "inputs": [
        {
          "indexed": true,
          "internalType": "address",
          "name": "user",
          "type": "address"
        },
        {
          "indexed": true,
          "internalType": "uint256",
          "name": "poolId",
          "type": "uint256"
        },
        {
          "indexed": false,
          "internalType": "uint256",
          "name": "reward",
          "type": "uint256"
        }
      ],
      "name": "RewardPaid",
      "type": "event"
    },
    {
      "anonymous": false,
      "inputs": [
        {
          "indexed": true,
          "internalType": "address",
          "name": "user",
          "type": "address"
        },
        {
          "indexed": true,
          "internalType": "uint256",
          "name": "poolId",
          "type": "uint256"
        },
        {
          "indexed": false,
          "internalType": "uint256",
          "name": "amount",
          "type": "uint256"
        }
      ],
      "name": "Staked",
      "type": "event"
    },
    {
      "anonymous": false,
      "inputs": [
        {
          "indexed": false,
          "internalType": "address",
          "name": "account",
          "type": "address"
        }
      ],
      "name": "Unpaused",
      "type": "event"
    },
    {
      "anonymous": false,
      "inputs": [
        {
          "indexed": true,
          "internalType": "address",
          "name": "user",
          "type": "address"
        },
        {
          "indexed": true,
          "internalType": "uint256",
          "name": "poolId",
          "type": "uint256"
        },
        {
          "indexed": false,
          "internalType": "uint256",
          "name": "amount",
          "type": "uint256"
        }
      ],
      "name": "Withdrawn",
      "type": "event"
    },
    {
      "inputs": [],
      "name": "MIN_STAKE_AMOUNT",
      "outputs": [
        {
          "internalType": "uint256",
          "name": "",
          "type": "uint256"
        }
      ],
      "stateMutability": "view",
      "type": "function"
    },
    {
      "inputs": [],
      "name": "REWARD_DURATION",
      "outputs": [
        {
          "internalType": "uint256",
          "name": "",
          "type": "uint256"
        }
      ],
      "stateMutability": "view",
      "type": "function"
    },
    {
      "inputs": [
        {
          "internalType": "uint256",
          "name": "poolId",
          "type": "uint256"
        }
      ],
      "name": "claimReward",
      "outputs": [],
      "stateMutability": "nonpayable",
      "type": "function"
    },
    {
      "inputs": [
        {
          "internalType": "address",
          "name": "_stakingToken",
          "type": "address"
        },
        {
          "internalType": "address",
          "name": "_rewardToken",
          "type": "address"
        },
        {
          "internalType": "uint256",
          "name": "_rewardRate",
          "type": "uint256"
        },
        {
          "internalType": "uint256",
          "name": "_lockPeriod",
          "type": "uint256"
        }
      ],
      "name": "createPool",
      "outputs": [],
      "stateMutability": "nonpayable",
      "type": "function"
    },
    {
      "inputs": [
        {
          "internalType": "uint256",
          "name": "poolId",
          "type": "uint256"
        }
      ],
      "name": "deactivatePool",
      "outputs": [],
      "stateMutability": "nonpayable",
      "type": "function"
    },
    {
      "inputs": [
        {
          "internalType": "uint256",
          "name": "poolId",
          "type": "uint256"
        },
        {
          "internalType": "address",
          "name": "account",
          "type": "address"
        }
      ],
      "name": "earned",
      "outputs": [
        {
          "internalType": "uint256",
          "name": "",
          "type": "uint256"
        }
      ],
      "stateMutability": "view",
      "type": "function"
    },
    {
      "inputs": [
        {
          "internalType": "uint256",
          "name": "poolId",
          "type": "uint256"
        }
      ],
      "name": "emergencyWithdraw",
      "outputs": [],
      "stateMutability": "nonpayable",
      "type": "function"
    },
    {
      "inputs": [
        {
          "internalType": "uint256",
          "name": "poolId",
          "type": "uint256"
        }
      ],
      "name": "getPoolAPY",
      "outputs": [
        {
          "internalType": "uint256",
          "name": "",
          "type": "uint256"
        }
      ],
      "stateMutability": "view",
      "type": "function"
    },
    {
      "inputs": [
        {
          "internalType": "uint256",
          "name": "poolId",
          "type": "uint256"
        }
      ],
      "name": "getPoolInfo",
      "outputs": [
        {
          "internalType": "address",
          "name": "stakingToken",
          "type": "address"
        },
        {
          "internalType": "address",
          "name": "rewardToken",
          "type": "address"
        },
        {
          "internalType": "uint256",
          "name": "rewardRate",
          "type": "uint256"
        },
        {
          "internalType": "uint256",
          "name": "totalStaked",
          "type": "uint256"
        },
        {
          "internalType": "uint256",
          "name": "lockPeriod",
          "type": "uint256"
        },
        {
          "internalType": "bool",
          "name": "active",
          "type": "bool"
        }
      ],
      "stateMutability": "view",
      "type": "function"
    },
    {
      "inputs": [
        {
          "internalType": "address",
          "name": "user",
          "type": "address"
        }
      ],
      "name": "getUserStakes",
      "outputs": [
        {
          "internalType": "uint256[]",
          "name": "poolIds",
          "type": "uint256[]"
        },
        {
          "internalType": "uint256[]",
          "name": "balances",
          "type": "uint256[]"
        },
        {
          "internalType": "uint256[]",
          "name": "rewards",
          "type": "uint256[]"
        },
        {
          "internalType": "uint256[]",
          "name": "lockEndTimes",
          "type": "uint256[]"
        }
      ],
      "stateMutability": "view",
      "type": "function"
    },
    {
      "inputs": [
        {
          "internalType": "uint256",
          "name": "poolId",
          "type": "uint256"
        }
      ],
      "name": "lastTimeRewardApplicable",
      "outputs": [
        {
          "internalType": "uint256",
          "name": "",
          "type": "uint256"
        }
      ],
      "stateMutability": "view",
      "type": "function"
    },
    {
      "inputs": [],
      "name": "owner",
      "outputs": [
        {
          "internalType": "address",
          "name": "",
          "type": "address"
        }
      ],
      "stateMutability": "view",
      "type": "function"
    },
    {
      "inputs": [],
      "name": "pause",
      "outputs": [],
      "stateMutability": "nonpayable",
      "type": "function"
    },
    {
      "inputs": [],
      "name": "paused",
      "outputs": [
        {
          "internalType": "bool",
          "name": "",
          "type": "bool"
        }
      ],
      "stateMutability": "view",
      "type": "function"
    },
    {
      "inputs": [],
      "name": "poolCount",
      "outputs": [
        {
          "internalType": "uint256",
          "name": "",
          "type": "uint256"
        }
      ],
      "stateMutability": "view",
      "type": "function"
    },
    {
      "inputs": [],
      "name": "renounceOwnership",
      "outputs": [],
      "stateMutability": "nonpayable",
      "type": "function"
    },
    {
      "inputs": [
        {
          "internalType": "uint256",
          "name": "poolId",
          "type": "uint256"
        }
      ],
      "name": "rewardPerToken",
      "outputs": [
        {
          "internalType": "uint256",
          "name": "",
          "type": "uint256"
        }
      ],
      "stateMutability": "view",
      "type": "function"
    },
    {
      "inputs": [
        {
          "internalType": "uint256",
          "name": "poolId",
          "type": "uint256"
        },
        {
          "internalType": "uint256",
          "name": "amount",
          "type": "uint256"
        }
      ],
      "name": "stake",
      "outputs": [],
      "stateMutability": "nonpayable",
      "type": "function"
    },
    {
      "inputs": [
        {
          "internalType": "uint256",
          "name": "",
          "type": "uint256"
        }
      ],
      "name": "stakingPools",
      "outputs": [
        {
          "internalType": "contract IERC20",
          "name": "stakingToken",
          "type": "address"
        },
        {
          "internalType": "contract IERC20",
          "name": "rewardToken",
          "type": "address"
        },
        {
          "internalType": "uint256",
          "name": "rewardRate",
          "type": "uint256"
        },
        {
          "internalType": "uint256",
          "name": "lastUpdateTime",
          "type": "uint256"
        },
        {
          "internalType": "uint256",
          "name": "rewardPerTokenStored",
          "type": "uint256"
        },
        {
          "internalType": "uint256",
          "name": "totalStaked",
          "type": "uint256"
        },
        {
          "internalType": "uint256",
          "name": "lockPeriod",
          "type": "uint256"
        },
        {
          "internalType": "bool",
          "name": "active",
          "type": "bool"
        }
      ],
      "stateMutability": "view",
      "type": "function"
    },
    {
      "inputs": [
        {
          "internalType": "address",
          "name": "newOwner",
          "type": "address"
        }
      ],
      "name": "transferOwnership",
      "outputs": [],
      "stateMutability": "nonpayable",
      "type": "function"
    },
    {
      "inputs": [],
      "name": "unpause",
      "outputs": [],
      "stateMutability": "nonpayable",
      "type": "function"
    },
    {
      "inputs": [
        {
          "internalType": "uint256",
          "name": "poolId",
          "type": "uint256"
        },
        {
          "internalType": "uint256",
          "name": "newRewardRate",
          "type": "uint256"
        }
      ],
      "name": "updateRewardRate",
      "outputs": [],
      "stateMutability": "nonpayable",
      "type": "function"
    },
    {
      "inputs": [
        {
          "internalType": "address",
          "name": "",
          "type": "address"
        },
        {
          "internalType": "uint256",
          "name": "",
          "type": "uint256"
        }
      ],
      "name": "userPoolIds",
      "outputs": [
        {
          "internalType": "uint256",
          "name": "",
          "type": "uint256"
        }
      ],
      "stateMutability": "view",
      "type": "function"
    },
    {
      "inputs": [
        {
          "internalType": "uint256",
          "name": "",
          "type": "uint256"
        },
        {
          "internalType": "address",
          "name": "",
          "type": "address"
        }
      ],
      "name": "userStakes",
      "outputs": [
        {
          "internalType": "uint256",
          "name": "balance",
          "type": "uint256"
        },
        {
          "internalType": "uint256",
          "name": "userRewardPerTokenPaid",
          "type": "uint256"
        },
        {
          "internalType": "uint256",
          "name": "rewards",
          "type": "uint256"
        },
        {
          "internalType": "uint256",
          "name": "stakeTime",
          "type": "uint256"
        },
        {
          "internalType": "uint256",
          "name": "lockEndTime",
          "type": "uint256"
        }
      ],
      "stateMutability": "view",
      "type": "function"
    },
    {
      "inputs": [
        {
          "internalType": "uint256",
          "name": "poolId",
          "type": "uint256"
        },
        {
          "internalType": "uint256",
          "name": "amount",
          "type": "uint256"
        }
      ],
      "name": "withdraw",
      "outputs": [],
      "stateMutability": "nonpayable",
      "type": "function"
    }
  ],
  "bytecode": "0x608060405234801561001057600080fd5b506001600055338061003c57604051631e4fbdf760e01b81526000600482015260240160405180910390fd5b6100458161004b565b5061009d565b600180546001600160a01b038381166001600160a01b0319831681179093556040519116919082907f8be0079c531659141344cd1fd0a4f28419497f9722a3daafe3b4186f6b6457e090600090a35050565b611c39806100ac6000396000f3fe608060405234801561001057600080fd5b50600436106101735760003560e01c8063874c120b116100de578063ae169a5011610097578063e899052411610071578063e899052414610467578063eeca1562146104d5578063f2fde38b146104e8578063f525cb68146104fb57600080fd5b8063ae169a501461042e578063b32534cf14610441578063e39c08fc1461045457600080fd5b8063874c120b146103b4578063884db063146103c75780638aabb082146103da5780638da5cb5b146103ed5780639abd9b0514610408578063a80786d11461041b57600080fd5b80635ade228a116101305780635ade228a146103475780635c975abb14610351578063715018a61461036e5780637b0472f014610376578063842e2981146103895780638456cb59146103ac57600080fd5b806327ed7188146101785780632f380b351461019a5780633f4ba83a1461026c578063441a3e70146102765780635312ea8e146102895780635aad6cf01461029c575b600080fd5b610187670de0b6b3a764000081565b6040519081526020015b60405180910390f35b6102326101a8366004611931565b60009081526002602081815260409283902083516101008101855281546001600160a01b039081168083526001840154909116938201849052938201549481018590526003820154606082015260048201546080820152600582015460a08201819052600683015460c0830181905260079093015460ff16151560e0909201829052939592949392565b604080516001600160a01b0397881681529690951660208701529385019290925260608401526080830152151560a082015260c001610191565b610274610504565b005b61027461028436600461194a565b610516565b610274610297366004611931565b61079a565b6102ff6102aa366004611931565b6002602081905260009182526040909120805460018201549282015460038301546004840154600585015460068601546007909601546001600160a01b03958616979095169593949293919290919060ff1688565b604080516001600160a01b03998a168152989097166020890152958701949094526060860192909252608085015260a084015260c0830152151560e082015261010001610191565b61018762093a8081565b600154600160a01b900460ff166040519015158152602001610191565b610274610946565b61027461038436600461194a565b610958565b61039c610397366004611988565b610bcb565b60405161019194939291906119de565b610274610f4f565b6101876103c2366004611931565b610f5f565b6102746103d5366004611a36565b61103d565b6101876103e8366004611a78565b61126b565b6001546040516001600160a01b039091168152602001610191565b610274610416366004611931565b61129c565b610187610429366004611931565b611313565b61027461043c366004611931565b6113d7565b61027461044f36600461194a565b61159e565b610187610462366004611aa2565b6116c2565b6104ad610475366004611aa2565b600360208181526000938452604080852090915291835291208054600182015460028301549383015460049093015491939092909185565b604080519586526020860194909452928401919091526060830152608082015260a001610191565b6101876104e3366004611931565b504290565b6102746104f6366004611988565b611760565b61018760055481565b61050c61179b565b6105146117c8565b565b61051e61181d565b8160055481106105495760405162461bcd60e51b815260040161054090611ace565b60405180910390fd5b60008181526002602052604090206007015460ff1661057a5760405162461bcd60e51b815260040161054090611afb565b60008381526002602052604090208390339061059583610f5f565b60048201554260038201556001600160a01b038216156105ec5760008381526003602090815260408083206001600160a01b038616845290915290206105db84846116c2565b600282015560048201546001909101555b60008681526003602090815260408083203384529091529020805486111561064d5760405162461bcd60e51b8152602060048201526014602482015273496e73756666696369656e742062616c616e636560601b6044820152606401610540565b80600401544210156106975760405162461bcd60e51b8152602060048201526013602482015272151bdad95b9cc81cdd1a5b1b081b1bd8dad959606a1b6044820152606401610540565b60008781526002602052604081208254909188918491906106b9908490611b3d565b92505081905550868160050160008282546106d49190611b3d565b9091555050805460405163a9059cbb60e01b8152336004820152602481018990526001600160a01b039091169063a9059cbb906044016020604051808303816000875af1158015610729573d6000803e3d6000fd5b505050506040513d601f19601f8201168201806040525081019061074d9190611b50565b50604051878152889033907f92ccf450a286a957af52509bc1c9939d1a6a481783e142e41e2499f0bb66ebc6906020015b60405180910390a35050505050506107966001600055565b5050565b6107a261181d565b8060055481106107c45760405162461bcd60e51b815260040161054090611ace565b60008181526002602052604090206007015460ff166107f55760405162461bcd60e51b815260040161054090611afb565b600082815260036020908152604080832033845290915290208054806108565760405162461bcd60e51b81526020600482015260166024820152754e6f2062616c616e636520746f20776974686472617760501b6044820152606401610540565b6000848152600260208190526040822082855590840182905560058101805491928492610884908490611b3d565b9091555050805460405163a9059cbb60e01b8152336004820152602481018490526001600160a01b039091169063a9059cbb906044016020604051808303816000875af11580156108d9573d6000803e3d6000fd5b505050506040513d601f19601f820116820180604052508101906108fd9190611b50565b50604051828152859033907fbb757047c2b5f3974fe26b7c10f732e7bce710b0952a71082702781e62ae05959060200160405180910390a3505050506109436001600055565b50565b61094e61179b565b6105146000611847565b61096061181d565b610968611899565b81600554811061098a5760405162461bcd60e51b815260040161054090611ace565b60008181526002602052604090206007015460ff166109bb5760405162461bcd60e51b815260040161054090611afb565b6000838152600260205260409020839033906109d683610f5f565b60048201554260038201556001600160a01b03821615610a2d5760008381526003602090815260408083206001600160a01b03861684529091529020610a1c84846116c2565b600282015560048201546001909101555b670de0b6b3a7640000851015610a7c5760405162461bcd60e51b8152602060048201526014602482015273416d6f756e742062656c6f77206d696e696d756d60601b6044820152606401610540565b60008681526002602090815260408083206003835281842033808652935292819020835491516323b872dd60e01b8152600481019390935230602484015260448301899052916001600160a01b03909116906323b872dd906064016020604051808303816000875af1158015610af6573d6000803e3d6000fd5b505050506040513d601f19601f82011682018060405250810190610b1a9190611b50565b508054600003610b4757336000908152600460209081526040822080546001810182559083529120018890555b86816000016000828254610b5b9190611b72565b909155505042600382018190556006830154610b7691611b72565b816004018190555086826005016000828254610b929190611b72565b9091555050604051878152889033907f1449c6dd7851abc30abf37f57715f492010519147cc2652fbc38202c18a6ee909060200161077e565b606080606080600060046000876001600160a01b03166001600160a01b03168152602001908152602001600020805480602002602001604051908101604052809291908181526020018280548015610c4257602002820191906000526020600020905b815481526020019060010190808311610c2e575b505050505090506000805b8251811015610cd157600060036000858481518110610c6e57610c6e611b85565b6020026020010151815260200190815260200160002060008a6001600160a01b03166001600160a01b03168152602001908152602001600020600001541115610cbf5781610cbb81611b9b565b9250505b80610cc981611b9b565b915050610c4d565b508067ffffffffffffffff811115610ceb57610ceb611bb4565b604051908082528060200260200182016040528015610d14578160200160208202803683370190505b5095508067ffffffffffffffff811115610d3057610d30611bb4565b604051908082528060200260200182016040528015610d59578160200160208202803683370190505b5094508067ffffffffffffffff811115610d7557610d75611bb4565b604051908082528060200260200182016040528015610d9e578160200160208202803683370190505b5093508067ffffffffffffffff811115610dba57610dba611bb4565b604051908082528060200260200182016040528015610de3578160200160208202803683370190505b5092506000805b8351811015610f44576000848281518110610e0757610e07611b85565b6020026020010151905060006003600083815260200190815260200160002060008c6001600160a01b03166001600160a01b031681526020019081526020016000206040518060a0016040529081600082015481526020016001820154815260200160028201548152602001600382015481526020016004820154815250509050600081600001511115610f2f57818a8581518110610ea857610ea8611b85565b6020026020010181815250508060000151898581518110610ecb57610ecb611b85565b602002602001018181525050610ee1828c6116c2565b888581518110610ef357610ef3611b85565b6020026020010181815250508060800151878581518110610f1657610f16611b85565b602090810291909101015283610f2b81611b9b565b9450505b50508080610f3c90611b9b565b915050610dea565b505050509193509193565b610f5761179b565b6105146118c4565b600081815260026020818152604080842081516101008101835281546001600160a01b0390811682526001830154169381019390935292830154908201526003820154606082015260048201546080820152600582015460a08201819052600683015460c083015260079092015460ff16151560e0820152908203610fe8576080015192915050565b60a0810151604082015160608301516110019042611b3d565b61100b9190611bca565b61101d90670de0b6b3a7640000611bca565b6110279190611be1565b81608001516110369190611b72565b9392505050565b61104561179b565b6001600160a01b0384166110935760405162461bcd60e51b815260206004820152601560248201527424b73b30b634b21039ba30b5b4b733903a37b5b2b760591b6044820152606401610540565b6001600160a01b0383166110e05760405162461bcd60e51b815260206004820152601460248201527324b73b30b634b2103932bbb0b932103a37b5b2b760611b6044820152606401610540565b600082116111305760405162461bcd60e51b815260206004820152601c60248201527f5265776172642072617465206d75737420626520706f736974697665000000006044820152606401610540565b60408051610100810182526001600160a01b0380871682528581166020808401918252838501878152426060860190815260006080870181815260a0880182815260c089018b8152600160e08b018181526005805487526002998a9052958d90209b518c54908c166001600160a01b0319918216178d559951918c01805492909b1691909916179098559351948801949094559051600387015591516004860155518482015591516006840155516007909201805492151560ff19909316929092179091555490517ff756876565d755443228c555dcee8573d6405d9be751ac121eb5e386ed86913a90611248908790879087906001600160a01b039384168152919092166020820152604081019190915260600190565b60405180910390a26005805490600061126083611b9b565b919050555050505050565b6004602052816000526040600020818154811061128757600080fd5b90600052602060002001600091509150505481565b6112a461179b565b8060055481106112c65760405162461bcd60e51b815260040161054090611ace565b60008181526002602052604090206007015460ff166112f75760405162461bcd60e51b815260040161054090611afb565b506000908152600260205260409020600701805460ff19169055565b600081815260026020818152604080842081516101008101835281546001600160a01b0390811682526001830154169381019390935292830154908201526003820154606082015260048201546080820152600582015460a08201819052600683015460c083015260079092015460ff16151560e082015290820361139b5750600092915050565b600081604001516301e133806113b19190611bca565b60a08301519091506113c582612710611bca565b6113cf9190611be1565b949350505050565b6113df61181d565b8060055481106114015760405162461bcd60e51b815260040161054090611ace565b60008181526002602052604090206007015460ff166114325760405162461bcd60e51b815260040161054090611afb565b60008281526002602052604090208290339061144d83610f5f565b60048201554260038201556001600160a01b038216156114a45760008381526003602090815260408083206001600160a01b0386168452909152902061149384846116c2565b600282015560048201546001909101555b600085815260036020908152604080832033845290915290206002810154801561158e57600060028381018290558882526020526040908190206001810154915163a9059cbb60e01b81523360048201526024810184905290916001600160a01b03169063a9059cbb906044016020604051808303816000875af1158015611530573d6000803e3d6000fd5b505050506040513d601f19601f820116820180604052508101906115549190611b50565b50604051828152889033907fd6f2c8500df5b44f11e9e48b91ff9f1b9d81bc496d55570c2b1b75bf65243f519060200160405180910390a3505b5050505050506109436001600055565b6115a661179b565b8160055481106115c85760405162461bcd60e51b815260040161054090611ace565b60008181526002602052604090206007015460ff166115f95760405162461bcd60e51b815260040161054090611afb565b600083815260026020526040812084919061161383610f5f565b60048201554260038201556001600160a01b0382161561166a5760008381526003602090815260408083206001600160a01b0386168452909152902061165984846116c2565b600282015560048201546001909101555b600086815260026020819052604091829020018690555186907f7fa9647ec1cc14e3822b46d05a2b9d4e019bde8875c0088c46b6503d71bf1722906116b29088815260200190565b60405180910390a2505050505050565b60008281526003602081815260408084206001600160a01b03861685528252808420815160a081018352815481526001820154938101849052600282015492810183905293810154606085015260040154608084015290670de0b6b3a76400009061172c87610f5f565b6117369190611b3d565b83516117429190611bca565b61174c9190611be1565b6117569190611b72565b9150505b92915050565b61176861179b565b6001600160a01b03811661179257604051631e4fbdf760e01b815260006004820152602401610540565b61094381611847565b6001546001600160a01b031633146105145760405163118cdaa760e01b8152336004820152602401610540565b6117d0611907565b6001805460ff60a01b191690557f5db9ee0a495bf2e6ff9c91a7834c1ba4fdd244a5e8aa4e537bd38aeae4b073aa335b6040516001600160a01b03909116815260200160405180910390a1565b60026000540361184057604051633ee5aeb560e01b815260040160405180910390fd5b6002600055565b600180546001600160a01b038381166001600160a01b0319831681179093556040519116919082907f8be0079c531659141344cd1fd0a4f28419497f9722a3daafe3b4186f6b6457e090600090a35050565b600154600160a01b900460ff16156105145760405163d93c066560e01b815260040160405180910390fd5b6118cc611899565b6001805460ff60a01b1916600160a01b1790557f62e78cea01bee320cd4e420270b5ea74000d11b0c9f74754ebdbfc544b05a2586118003390565b600154600160a01b900460ff1661051457604051638dfc202b60e01b815260040160405180910390fd5b60006020828403121561194357600080fd5b5035919050565b6000806040838503121561195d57600080fd5b50508035926020909101359150565b80356001600160a01b038116811461198357600080fd5b919050565b60006020828403121561199a57600080fd5b6110368261196c565b600081518084526020808501945080840160005b838110156119d3578151875295820195908201906001016119b7565b509495945050505050565b6080815260006119f160808301876119a3565b8281036020840152611a0381876119a3565b90508281036040840152611a1781866119a3565b90508281036060840152611a2b81856119a3565b979650505050505050565b60008060008060808587031215611a4c57600080fd5b611a558561196c565b9350611a636020860161196c565b93969395505050506040820135916060013590565b60008060408385031215611a8b57600080fd5b611a948361196c565b946020939093013593505050565b60008060408385031215611ab557600080fd5b82359150611ac56020840161196c565b90509250929050565b602080825260139082015272141bdbdb08191bd95cc81b9bdd08195e1a5cdd606a1b604082015260600190565b602080825260129082015271506f6f6c206973206e6f742061637469766560701b604082015260600190565b634e487b7160e01b600052601160045260246000fd5b8181038181111561175a5761175a611b27565b600060208284031215611b6257600080fd5b8151801515811461103657600080fd5b8082018082111561175a5761175a611b27565b634e487b7160e01b600052603260045260246000fd5b600060018201611bad57611bad611b27565b5060010190565b634e487b7160e01b600052604160045260246000fd5b808202811582820484141761175a5761175a611b27565b600082611bfe57634e487b7160e01b600052601260045260246000fd5b50049056fea2646970667358221220981c724f283c968059d8a3d915f613dcdd9421e8c07e837f94a79977243b6a1964736f6c63430008140033",
  "linkReferences": {},
  "deployedLinkReferences": {}
}