{
  "_format": "hh-sol-artifact-1",
  "contractName": "FlareWindFutures",
  "sourceName": "contracts/FlareWindFutures.sol",
  "abi": [
    {
      "inputs": [
        {
          "internalType": "address",
          "name": "_contractRegistry",
          "type": "address"
        },
        {
          "internalType": "address",
          "name": "_flrToken",
          "type": "address"
        },
        {
          "internalType": "address",
          "name": "_usdtToken",
          "type": "address"
        }
      ],
      "stateMutability": "nonpayable",
      "type": "constructor"
    },
    {
      "inputs": [
        {
          "internalType": "address",
          "name": "owner",
          "type": "address"
        }
      ],
      "name": "OwnableInvalidOwner",
      "type": "error"
    },
    {
      "inputs": [
        {
          "internalType": "address",
          "name": "account",
          "type": "address"
        }
      ],
      "name": "OwnableUnauthorizedAccount",
      "type": "error"
    },
    {
      "inputs": [],
      "name": "ReentrancyGuardReentrantCall",
      "type": "error"
    },
    {
      "anonymous": false,
      "inputs": [
        {
          "indexed": true,
          "internalType": "bytes32",
          "name": "contractId",
          "type": "bytes32"
        },
        {
          "indexed": true,
          "internalType": "address",
          "name": "trader",
          "type": "address"
        },
        {
          "indexed": false,
          "internalType": "bool",
          "name": "isLong",
          "type": "bool"
        },
        {
          "indexed": false,
          "internalType": "uint256",
          "name": "strikePrice",
          "type": "uint256"
        },
        {
          "indexed": false,
          "internalType": "uint256",
          "name": "notionalAmount",
          "type": "uint256"
        },
        {
          "indexed": false,
          "internalType": "uint256",
          "name": "collateralAmount",
          "type": "uint256"
        },
        {
          "indexed": false,
          "internalType": "address",
          "name": "collateralToken",
          "type": "address"
        },
        {
          "indexed": false,
          "internalType": "uint256",
          "name": "expiryTimestamp",
          "type": "uint256"
        }
      ],
      "name": "FutureCreated",
      "type": "event"
    },
    {
      "anonymous": false,
      "inputs": [
        {
          "indexed": true,
          "internalType": "bytes32",
          "name": "contractId",
          "type": "bytes32"
        },
        {
          "indexed": true,
          "internalType": "address",
          "name": "trader",
          "type": "address"
        },
        {
          "indexed": false,
          "internalType": "int256",
          "name": "pnl",
          "type": "int256"
        },
        {
          "indexed": false,
          "internalType": "uint256",
          "name": "windSpeedAtExpiry",
          "type": "uint256"
        }
      ],
      "name": "FutureSettled",
      "type": "event"
    },
    {
      "anonymous": false,
      "inputs": [
        {
          "indexed": false,
          "internalType": "uint256",
          "name": "windSpeed",
          "type": "uint256"
        },
        {
          "indexed": false,
          "internalType": "uint256",
          "name": "flrUsdPrice",
          "type": "uint256"
        },
        {
          "indexed": false,
          "internalType": "uint256",
          "name": "timestamp",
          "type": "uint256"
        }
      ],
      "name": "MarketDataUpdated",
      "type": "event"
    },
    {
      "anonymous": false,
      "inputs": [
        {
          "indexed": true,
          "internalType": "address",
          "name": "previousOwner",
          "type": "address"
        },
        {
          "indexed": true,
          "internalType": "address",
          "name": "newOwner",
          "type": "address"
        }
      ],
      "name": "OwnershipTransferred",
      "type": "event"
    },
    {
      "inputs": [],
      "name": "FLR_USD_FEED_ID",
      "outputs": [
        {
          "internalType": "bytes21",
          "name": "",
          "type": "bytes21"
        }
      ],
      "stateMutability": "view",
      "type": "function"
    },
    {
      "inputs": [],
      "name": "MARGIN_REQUIREMENT",
      "outputs": [
        {
          "internalType": "uint256",
          "name": "",
          "type": "uint256"
        }
      ],
      "stateMutability": "view",
      "type": "function"
    },
    {
      "inputs": [],
      "name": "SETTLEMENT_WINDOW",
      "outputs": [
        {
          "internalType": "uint256",
          "name": "",
          "type": "uint256"
        }
      ],
      "stateMutability": "view",
      "type": "function"
    },
    {
      "inputs": [],
      "name": "WIND_SPEED_FEED_ID",
      "outputs": [
        {
          "internalType": "bytes21",
          "name": "",
          "type": "bytes21"
        }
      ],
      "stateMutability": "view",
      "type": "function"
    },
    {
      "inputs": [
        {
          "internalType": "uint256",
          "name": "",
          "type": "uint256"
        }
      ],
      "name": "allContracts",
      "outputs": [
        {
          "internalType": "bytes32",
          "name": "",
          "type": "bytes32"
        }
      ],
      "stateMutability": "view",
      "type": "function"
    },
    {
      "inputs": [],
      "name": "contractRegistry",
      "outputs": [
        {
          "internalType": "contract IContractRegistry",
          "name": "",
          "type": "address"
        }
      ],
      "stateMutability": "view",
      "type": "function"
    },
    {
      "inputs": [
        {
          "internalType": "bool",
          "name": "_isLong",
          "type": "bool"
        },
        {
          "internalType": "uint256",
          "name": "_strikePrice",
          "type": "uint256"
        },
        {
          "internalType": "uint256",
          "name": "_notionalAmount",
          "type": "uint256"
        },
        {
          "internalType": "address",
          "name": "_collateralToken",
          "type": "address"
        },
        {
          "internalType": "uint256",
          "name": "_expiryDays",
          "type": "uint256"
        }
      ],
      "name": "createWindFuture",
      "outputs": [],
      "stateMutability": "nonpayable",
      "type": "function"
    },
    {
      "inputs": [],
      "name": "flrToken",
      "outputs": [
        {
          "internalType": "contract IERC20",
          "name": "",
          "type": "address"
        }
      ],
      "stateMutability": "view",
      "type": "function"
    },
    {
      "inputs": [],
      "name": "ftsoV2",
      "outputs": [
        {
          "internalType": "contract IFtsoV2",
          "name": "",
          "type": "address"
        }
      ],
      "stateMutability": "view",
      "type": "function"
    },
    {
      "inputs": [],
      "name": "getAllContracts",
      "outputs": [
        {
          "internalType": "bytes32[]",
          "name": "",
          "type": "bytes32[]"
        }
      ],
      "stateMutability": "view",
      "type": "function"
    },
    {
      "inputs": [
        {
          "internalType": "bytes32",
          "name": "_contractId",
          "type": "bytes32"
        }
      ],
      "name": "getContract",
      "outputs": [
        {
          "components": [
            {
              "internalType": "bytes32",
              "name": "contractId",
              "type": "bytes32"
            },
            {
              "internalType": "address",
              "name": "trader",
              "type": "address"
            },
            {
              "internalType": "bool",
              "name": "isLong",
              "type": "bool"
            },
            {
              "internalType": "uint256",
              "name": "strikePrice",
              "type": "uint256"
            },
            {
              "internalType": "uint256",
              "name": "notionalAmount",
              "type": "uint256"
            },
            {
              "internalType": "uint256",
              "name": "collateralAmount",
              "type": "uint256"
            },
            {
              "internalType": "address",
              "name": "collateralToken",
              "type": "address"
            },
            {
              "internalType": "uint256",
              "name": "expiryTimestamp",
              "type": "uint256"
            },
            {
              "internalType": "bool",
              "name": "isSettled",
              "type": "bool"
            },
            {
              "internalType": "int256",
              "name": "pnl",
              "type": "int256"
            },
            {
              "internalType": "uint256",
              "name": "createdAt",
              "type": "uint256"
            }
          ],
          "internalType": "struct FlareWindFutures.WindFuture",
          "name": "",
          "type": "tuple"
        }
      ],
      "stateMutability": "view",
      "type": "function"
    },
    {
      "inputs": [],
      "name": "getMarketData",
      "outputs": [
        {
          "components": [
            {
              "internalType": "uint256",
              "name": "currentWindSpeed",
              "type": "uint256"
            },
            {
              "internalType": "uint256",
              "name": "flrUsdPrice",
              "type": "uint256"
            },
            {
              "internalType": "uint256",
              "name": "lastUpdate",
              "type": "uint256"
            }
          ],
          "internalType": "struct FlareWindFutures.MarketData",
          "name": "",
          "type": "tuple"
        }
      ],
      "stateMutability": "view",
      "type": "function"
    },
    {
      "inputs": [
        {
          "internalType": "address",
          "name": "_user",
          "type": "address"
        }
      ],
      "name": "getUserPositions",
      "outputs": [
        {
          "internalType": "bytes32[]",
          "name": "",
          "type": "bytes32[]"
        }
      ],
      "stateMutability": "view",
      "type": "function"
    },
    {
      "inputs": [],
      "name": "marketData",
      "outputs": [
        {
          "internalType": "uint256",
          "name": "currentWindSpeed",
          "type": "uint256"
        },
        {
          "internalType": "uint256",
          "name": "flrUsdPrice",
          "type": "uint256"
        },
        {
          "internalType": "uint256",
          "name": "lastUpdate",
          "type": "uint256"
        }
      ],
      "stateMutability": "view",
      "type": "function"
    },
    {
      "inputs": [],
      "name": "owner",
      "outputs": [
        {
          "internalType": "address",
          "name": "",
          "type": "address"
        }
      ],
      "stateMutability": "view",
      "type": "function"
    },
    {
      "inputs": [],
      "name": "renounceOwnership",
      "outputs": [],
      "stateMutability": "nonpayable",
      "type": "function"
    },
    {
      "inputs": [
        {
          "internalType": "bytes32",
          "name": "_contractId",
          "type": "bytes32"
        }
      ],
      "name": "settleFuture",
      "outputs": [],
      "stateMutability": "nonpayable",
      "type": "function"
    },
    {
      "inputs": [
        {
          "internalType": "address",
          "name": "newOwner",
          "type": "address"
        }
      ],
      "name": "transferOwnership",
      "outputs": [],
      "stateMutability": "nonpayable",
      "type": "function"
    },
    {
      "inputs": [],
      "name": "updateFtsoInterface",
      "outputs": [],
      "stateMutability": "nonpayable",
      "type": "function"
    },
    {
      "inputs": [],
      "name": "updateMarketData",
      "outputs": [],
      "stateMutability": "nonpayable",
      "type": "function"
    },
    {
      "inputs": [],
      "name": "usdtToken",
      "outputs": [
        {
          "internalType": "contract IERC20",
          "name": "",
          "type": "address"
        }
      ],
      "stateMutability": "view",
      "type": "function"
    },
    {
      "inputs": [
        {
          "internalType": "address",
          "name": "",
          "type": "address"
        },
        {
          "internalType": "uint256",
          "name": "",
          "type": "uint256"
        }
      ],
      "name": "userPositions",
      "outputs": [
        {
          "internalType": "bytes32",
          "name": "",
          "type": "bytes32"
        }
      ],
      "stateMutability": "view",
      "type": "function"
    },
    {
      "inputs": [
        {
          "internalType": "bytes32",
          "name": "",
          "type": "bytes32"
        }
      ],
      "name": "windFutures",
      "outputs": [
        {
          "internalType": "bytes32",
          "name": "contractId",
          "type": "bytes32"
        },
        {
          "internalType": "address",
          "name": "trader",
          "type": "address"
        },
        {
          "internalType": "bool",
          "name": "isLong",
          "type": "bool"
        },
        {
          "internalType": "uint256",
          "name": "strikePrice",
          "type": "uint256"
        },
        {
          "internalType": "uint256",
          "name": "notionalAmount",
          "type": "uint256"
        },
        {
          "internalType": "uint256",
          "name": "collateralAmount",
          "type": "uint256"
        },
        {
          "internalType": "address",
          "name": "collateralToken",
          "type": "address"
        },
        {
          "internalType": "uint256",
          "name": "expiryTimestamp",
          "type": "uint256"
        },
        {
          "internalType": "bool",
          "name": "isSettled",
          "type": "bool"
        },
        {
          "internalType": "int256",
          "name": "pnl",
          "type": "int256"
        },
        {
          "internalType": "uint256",
          "name": "createdAt",
          "type": "uint256"
        }
      ],
      "stateMutability": "view",
      "type": "function"
    }
  ],
  "bytecode": "0x60e06040523480156200001157600080fd5b5060405162001a9738038062001a97833981016040819052620000349162000175565b600160005533806200006057604051631e4fbdf760e01b81526000600482015260240160405180910390fd5b6200006b816200010a565b506001600160a01b0383166080819052604080516330f95ed160e21b8152905163c3e57b44916004808201926020929091908290030181865afa158015620000b7573d6000803e3d6000fd5b505050506040513d601f19601f82011682018060405250810190620000dd9190620001c9565b600280546001600160a01b0319166001600160a01b0392831617905591821660a0521660c05250620001f0565b600180546001600160a01b038381166001600160a01b0319831681179093556040519116919082907f8be0079c531659141344cd1fd0a4f28419497f9722a3daafe3b4186f6b6457e090600090a35050565b6001600160a01b03811681146200017257600080fd5b50565b6000806000606084860312156200018b57600080fd5b835162000198816200015c565b6020850151909350620001ab816200015c565b6040850151909250620001be816200015c565b809150509250925092565b600060208284031215620001dc57600080fd5b8151620001e9816200015c565b9392505050565b60805160a05160c05161184d6200024a600039600081816103900152610d6201526000818161036901528181610a0301528181610a8101528181610d270152610e090152600081816103b701526111e2015261184d6000f3fe608060405234801561001057600080fd5b506004361061014d5760003560e01c8063715018a6116100c3578063b945b5271161007c578063b945b527146103d9578063cd1e4b2b14610406578063e16c7d9814610417578063e54e26b914610535578063ea015e6f14610548578063f2fde38b1461055057600080fd5b8063715018a61461033857806384e0648b146103405780638da5cb5b14610353578063985d73db14610364578063a98ad46c1461038b578063abf410e5146103b257600080fd5b80634d96264c116101155780634d96264c146101cf578063556517b1146101f95780635739ce25146102dc5780635e1b4d99146102e457806369f161c4146102f75780636ce020b81461032557600080fd5b80630abc7b561461015257806318d3ce961461015c57806325e898831461017a5780632a6bc2dd146101a55780633deb6cae146101b8575b600080fd5b61015a610563565b005b6101646106ad565b6040516101719190611368565b60405180910390f35b60025461018d906001600160a01b031681565b6040516001600160a01b039091168152602001610171565b6101646101b33660046113c1565b610705565b6101c1610e1081565b604051908152602001610171565b6101d7610771565b6040805182518152602080840151908201529181015190820152606001610171565b6102726102073660046113e5565b6003602081905260009182526040909120805460018201546002830154938301546004840154600585015460068601546007870154600888015460099098015496986001600160a01b038088169960ff600160a01b909904891699929895909116949290921691908b565b604080519b8c526001600160a01b039a8b1660208d0152981515988b019890985260608a0196909652608089019490945260a088019290925290941660c086015260e085019390935291151561010084015261012083019190915261014082015261016001610171565b6101c1601481565b6101c16102f23660046113fe565b6107ba565b610308665193148bd554d160c21b81565b6040516affffffffffffffffffffff199091168152602001610171565b61015a6103333660046113e5565b6107eb565b61015a610be6565b61015a61034e366004611438565b610bfa565b6001546001600160a01b031661018d565b61018d7f000000000000000000000000000000000000000000000000000000000000000081565b61018d7f000000000000000000000000000000000000000000000000000000000000000081565b61018d7f000000000000000000000000000000000000000000000000000000000000000081565b6006546007546008546103eb92919083565b60408051938452602084019290925290820152606001610171565b6103086655d3910bd554d160c21b81565b6105286104253660046113e5565b6040805161016081018252600080825260208201819052918101829052606081018290526080810182905260a0810182905260c0810182905260e0810182905261010081018290526101208101829052610140810191909152506000908152600360208181526040928390208351610160810185528154815260018201546001600160a01b038082169483019490945260ff600160a01b909104811615159582019590955260028201546060820152928101546080840152600481015460a0840152600581015490911660c0830152600681015460e083015260078101549092161515610100820152600882015461012082015260099091015461014082015290565b604051610171919061148a565b6101c16105433660046113e5565b6111b7565b61015a6111d8565b61015a61055e3660046113c1565b611284565b6002546040516349f4fc0360e11b8152665193148bd554d160c21b6004820152600091829182916001600160a01b0316906393e9f80690602401606060405180830381865afa1580156105ba573d6000803e3d6000fd5b505050506040513d601f19601f820116820180604052508101906105de9190611539565b9250925092506000808360000b12610617576105fb8360126115a5565b61060690600a6116a8565b61061090856116b7565b9050610638565b610620836116ce565b61062b90600a6116a8565b6106359085611702565b90505b60408051606080820183526102ee80835260208084018690524293850184905260068290556007869055600884905584518281529081018690529384019290925290917f4a81407baac7b9b658ebfeefd2e8f582852acd841304c3cd524ff279906c110e910160405180910390a15050505050565b606060058054806020026020016040519081016040528092919081815260200182805480156106fb57602002820191906000526020600020905b8154815260200190600101908083116106e7575b5050505050905090565b6001600160a01b03811660009081526004602090815260409182902080548351818402810184019094528084526060939283018282801561076557602002820191906000526020600020905b815481526020019060010190808311610751575b50505050509050919050565b61079560405180606001604052806000815260200160008152602001600081525090565b5060408051606081018252600654815260075460208201526008549181019190915290565b600460205281600052604060002081815481106107d657600080fd5b90600052602060002001600091509150505481565b6107f36112bf565b600081815260036020526040902060018101546001600160a01b03166108605760405162461bcd60e51b815260206004820152601760248201527f436f6e747261637420646f6573206e6f7420657869737400000000000000000060448201526064015b60405180910390fd5b600781015460ff16156108b55760405162461bcd60e51b815260206004820152601860248201527f436f6e747261637420616c726561647920736574746c656400000000000000006044820152606401610857565b80600601544210156109095760405162461bcd60e51b815260206004820152601860248201527f436f6e7472616374206e6f7420796574206578706972656400000000000000006044820152606401610857565b610e10816006015461091b9190611716565b42111561096a5760405162461bcd60e51b815260206004820152601960248201527f536574746c656d656e742077696e646f772065787069726564000000000000006044820152606401610857565b610972610563565b60065460028201546000906109879083611729565b6001840154909150600160a01b900460ff166109a9576109a681611750565b90505b600083600201548460030154836109c0919061176c565b6109ca919061179c565b6008850181905560078501805460ff1916600117905560048501549091506000821315610a665760058501546000906001600160a01b037f00000000000000000000000000000000000000000000000000000000000000008116911603610a5157600754610a4084670de0b6b3a76400006116b7565b610a4a9190611702565b9050610a54565b50815b610a5e8183611716565b915050610b03565b6000821215610b035760058501546000906001600160a01b037f00000000000000000000000000000000000000000000000000000000000000008116911603610ad857600754610ab584611750565b610ac790670de0b6b3a76400006116b7565b610ad19190611702565b9050610ae4565b610ae183611750565b90505b818110610af45760009150610b01565b610afe81836117ca565b91505b505b8015610b88576005850154600186015460405163a9059cbb60e01b81526001600160a01b0391821660048201526024810184905291169063a9059cbb906044016020604051808303816000875af1158015610b62573d6000803e3d6000fd5b505050506040513d601f19601f82011682018060405250810190610b8691906117dd565b505b600185015460408051848152602081018790526001600160a01b039092169188917f3ee724753ffa269797038da196dccd855008c0450838ff1d01bb51fbfdd77893910160405180910390a35050505050610be36001600055565b50565b610bee6112e9565b610bf86000611316565b565b610c026112bf565b8060071480610c11575080600e145b80610c1c575080601e145b610c605760405162461bcd60e51b8152602060048201526015602482015274125b9d985b1a5908195e1c1a5c9e481c195c9a5bd9605a1b6044820152606401610857565b6101908410158015610c7457506109608411155b610ccc5760405162461bcd60e51b8152602060048201526024808201527f537472696b65207072696365206f7574206f662072616e67652028342d3234206044820152636d70682960e01b6064820152608401610857565b68056bc75e2d63100000831015610d255760405162461bcd60e51b815260206004820152601b60248201527f4d696e696d756d20706f736974696f6e2073697a653a202431303000000000006044820152606401610857565b7f00000000000000000000000000000000000000000000000000000000000000006001600160a01b0316826001600160a01b03161480610d9657507f00000000000000000000000000000000000000000000000000000000000000006001600160a01b0316826001600160a01b0316145b610de25760405162461bcd60e51b815260206004820152601860248201527f496e76616c696420636f6c6c61746572616c20746f6b656e00000000000000006044820152606401610857565b610dea610563565b60006064610df96014866116b7565b610e039190611702565b905060007f00000000000000000000000000000000000000000000000000000000000000006001600160a01b0316846001600160a01b031603610e6657600754610e5583670de0b6b3a76400006116b7565b610e5f9190611702565b9050610e69565b50805b6040516323b872dd60e01b8152336004820152306024820152604481018290526001600160a01b038516906323b872dd906064016020604051808303816000875af1158015610ebc573d6000803e3d6000fd5b505050506040513d601f19601f82011682018060405250810190610ee091906117dd565b506005546040516bffffffffffffffffffffffff193360601b1660208201526034810188905260548101879052426074820152609481019190915260009060b40160405160208183030381529060405280519060200120905060008462015180610f4a91906116b7565b610f549042611716565b9050604051806101600160405280838152602001336001600160a01b031681526020018a15158152602001898152602001888152602001848152602001876001600160a01b031681526020018281526020016000151581526020016000815260200142815250600360008481526020019081526020016000206000820151816000015560208201518160010160006101000a8154816001600160a01b0302191690836001600160a01b0316021790555060408201518160010160146101000a81548160ff021916908315150217905550606082015181600201556080820151816003015560a0820151816004015560c08201518160050160006101000a8154816001600160a01b0302191690836001600160a01b0316021790555060e082015181600601556101008201518160070160006101000a81548160ff0219169083151502179055506101208201518160080155610140820151816009015590505060046000336001600160a01b03166001600160a01b031681526020019081526020016000208290806001815401808255809150506001900390600052602060002001600090919091909150556005829080600181540180825580915050600190039060005260206000200160009091909190915055336001600160a01b0316827f360a66541ea2109e656b35513352974421c4b4af95587f012fa35e83775bd82c8b8b8b888c8860405161119a9695949392919095151586526020860194909452604085019290925260608401526001600160a01b0316608083015260a082015260c00190565b60405180910390a3505050506111b06001600055565b5050505050565b600581815481106111c757600080fd5b600091825260209091200154905081565b6111e06112e9565b7f00000000000000000000000000000000000000000000000000000000000000006001600160a01b031663c3e57b446040518163ffffffff1660e01b8152600401602060405180830381865afa15801561123e573d6000803e3d6000fd5b505050506040513d601f19601f8201168201806040525081019061126291906117fa565b600280546001600160a01b0319166001600160a01b0392909216919091179055565b61128c6112e9565b6001600160a01b0381166112b657604051631e4fbdf760e01b815260006004820152602401610857565b610be381611316565b6002600054036112e257604051633ee5aeb560e01b815260040160405180910390fd5b6002600055565b6001546001600160a01b03163314610bf85760405163118cdaa760e01b8152336004820152602401610857565b600180546001600160a01b038381166001600160a01b0319831681179093556040519116919082907f8be0079c531659141344cd1fd0a4f28419497f9722a3daafe3b4186f6b6457e090600090a35050565b6020808252825182820181905260009190848201906040850190845b818110156113a057835183529284019291840191600101611384565b50909695505050505050565b6001600160a01b0381168114610be357600080fd5b6000602082840312156113d357600080fd5b81356113de816113ac565b9392505050565b6000602082840312156113f757600080fd5b5035919050565b6000806040838503121561141157600080fd5b823561141c816113ac565b946020939093013593505050565b8015158114610be357600080fd5b600080600080600060a0868803121561145057600080fd5b853561145b8161142a565b945060208601359350604086013592506060860135611479816113ac565b949793965091946080013592915050565b815181526020808301516101608301916114ae908401826001600160a01b03169052565b5060408301516114c2604084018215159052565b50606083015160608301526080830151608083015260a083015160a083015260c08301516114fb60c08401826001600160a01b03169052565b5060e083015160e08301526101008084015161151a8285018215159052565b5050610120838101519083015261014092830151929091019190915290565b60008060006060848603121561154e57600080fd5b8351925060208401518060000b811461156657600080fd5b604085015190925067ffffffffffffffff8116811461158457600080fd5b809150509250925092565b634e487b7160e01b600052601160045260246000fd5b60ff82811682821603908111156115be576115be61158f565b92915050565b600181815b808511156115ff5781600019048211156115e5576115e561158f565b808516156115f257918102915b93841c93908002906115c9565b509250929050565b600082611616575060016115be565b81611623575060006115be565b816001811461163957600281146116435761165f565b60019150506115be565b60ff8411156116545761165461158f565b50506001821b6115be565b5060208310610133831016604e8410600b8410161715611682575081810a6115be565b61168c83836115c4565b80600019048211156116a0576116a061158f565b029392505050565b60006113de60ff841683611607565b80820281158282048414176115be576115be61158f565b600081810b608081016116e3576116e361158f565b60000392915050565b634e487b7160e01b600052601260045260246000fd5b600082611711576117116116ec565b500490565b808201808211156115be576115be61158f565b81810360008312801583831316838312821617156117495761174961158f565b5092915050565b6000600160ff1b82016117655761176561158f565b5060000390565b80820260008212600160ff1b841416156117885761178861158f565b81810583148215176115be576115be61158f565b6000826117ab576117ab6116ec565b600160ff1b8214600019841416156117c5576117c561158f565b500590565b818103818111156115be576115be61158f565b6000602082840312156117ef57600080fd5b81516113de8161142a565b60006020828403121561180c57600080fd5b81516113de816113ac56fea2646970667358221220831f9ac3ab193ca7682c9ed2f48c1d76334320d1e63e91427cbd632045fe107d64736f6c63430008140033",
  "linkReferences": {},
  "deployedLinkReferences": {}
}