{
  "_format": "hh-sol-artifact-1",
  "contractName": "RainfallIndex",
  "sourceName": "contracts/RainfallIndex.sol",
  "abi": [
    {
      "inputs": [
        {
          "internalType": "address",
          "name": "_weatherOracle",
          "type": "address"
        }
      ],
      "stateMutability": "nonpayable",
      "type": "constructor"
    },
    {
      "inputs": [],
      "name": "EnforcedPause",
      "type": "error"
    },
    {
      "inputs": [],
      "name": "ExpectedPause",
      "type": "error"
    },
    {
      "inputs": [
        {
          "internalType": "address",
          "name": "owner",
          "type": "address"
        }
      ],
      "name": "OwnableInvalidOwner",
      "type": "error"
    },
    {
      "inputs": [
        {
          "internalType": "address",
          "name": "account",
          "type": "address"
        }
      ],
      "name": "OwnableUnauthorizedAccount",
      "type": "error"
    },
    {
      "inputs": [],
      "name": "ReentrancyGuardReentrantCall",
      "type": "error"
    },
    {
      "anonymous": false,
      "inputs": [
        {
          "indexed": true,
          "internalType": "address",
          "name": "user",
          "type": "address"
        },
        {
          "indexed": false,
          "internalType": "uint256",
          "name": "amount",
          "type": "uint256"
        }
      ],
      "name": "EmergencyWithdrawal",
      "type": "event"
    },
    {
      "anonymous": false,
      "inputs": [
        {
          "indexed": true,
          "internalType": "bytes32",
          "name": "optionId",
          "type": "bytes32"
        },
        {
          "indexed": true,
          "internalType": "address",
          "name": "creator",
          "type": "address"
        },
        {
          "indexed": false,
          "internalType": "uint256",
          "name": "strike",
          "type": "uint256"
        },
        {
          "indexed": false,
          "internalType": "uint256",
          "name": "premium",
          "type": "uint256"
        },
        {
          "indexed": false,
          "internalType": "uint256",
          "name": "expiry",
          "type": "uint256"
        }
      ],
      "name": "OptionCreated",
      "type": "event"
    },
    {
      "anonymous": false,
      "inputs": [
        {
          "indexed": true,
          "internalType": "bytes32",
          "name": "optionId",
          "type": "bytes32"
        },
        {
          "indexed": true,
          "internalType": "address",
          "name": "buyer",
          "type": "address"
        },
        {
          "indexed": false,
          "internalType": "uint256",
          "name": "quantity",
          "type": "uint256"
        },
        {
          "indexed": false,
          "internalType": "uint256",
          "name": "totalCost",
          "type": "uint256"
        }
      ],
      "name": "OptionPurchased",
      "type": "event"
    },
    {
      "anonymous": false,
      "inputs": [
        {
          "indexed": true,
          "internalType": "bytes32",
          "name": "optionId",
          "type": "bytes32"
        },
        {
          "indexed": false,
          "internalType": "uint256",
          "name": "actualRainfall",
          "type": "uint256"
        },
        {
          "indexed": false,
          "internalType": "uint256",
          "name": "payout",
          "type": "uint256"
        }
      ],
      "name": "OptionSettled",
      "type": "event"
    },
    {
      "anonymous": false,
      "inputs": [
        {
          "indexed": true,
          "internalType": "address",
          "name": "newOracle",
          "type": "address"
        }
      ],
      "name": "OracleUpdated",
      "type": "event"
    },
    {
      "anonymous": false,
      "inputs": [
        {
          "indexed": true,
          "internalType": "address",
          "name": "previousOwner",
          "type": "address"
        },
        {
          "indexed": true,
          "internalType": "address",
          "name": "newOwner",
          "type": "address"
        }
      ],
      "name": "OwnershipTransferred",
      "type": "event"
    },
    {
      "anonymous": false,
      "inputs": [
        {
          "indexed": false,
          "internalType": "address",
          "name": "account",
          "type": "address"
        }
      ],
      "name": "Paused",
      "type": "event"
    },
    {
      "anonymous": false,
      "inputs": [
        {
          "indexed": true,
          "internalType": "string",
          "name": "stationId",
          "type": "string"
        },
        {
          "indexed": false,
          "internalType": "uint256",
          "name": "rainfall",
          "type": "uint256"
        },
        {
          "indexed": false,
          "internalType": "uint256",
          "name": "timestamp",
          "type": "uint256"
        }
      ],
      "name": "RainfallDataUpdated",
      "type": "event"
    },
    {
      "anonymous": false,
      "inputs": [
        {
          "indexed": false,
          "internalType": "address",
          "name": "account",
          "type": "address"
        }
      ],
      "name": "Unpaused",
      "type": "event"
    },
    {
      "inputs": [],
      "name": "MAX_EXPIRY_DURATION",
      "outputs": [
        {
          "internalType": "uint256",
          "name": "",
          "type": "uint256"
        }
      ],
      "stateMutability": "view",
      "type": "function"
    },
    {
      "inputs": [],
      "name": "MIN_PREMIUM",
      "outputs": [
        {
          "internalType": "uint256",
          "name": "",
          "type": "uint256"
        }
      ],
      "stateMutability": "view",
      "type": "function"
    },
    {
      "inputs": [],
      "name": "PRECISION",
      "outputs": [
        {
          "internalType": "uint256",
          "name": "",
          "type": "uint256"
        }
      ],
      "stateMutability": "view",
      "type": "function"
    },
    {
      "inputs": [
        {
          "internalType": "uint256",
          "name": "",
          "type": "uint256"
        }
      ],
      "name": "activeOptions",
      "outputs": [
        {
          "internalType": "bytes32",
          "name": "",
          "type": "bytes32"
        }
      ],
      "stateMutability": "view",
      "type": "function"
    },
    {
      "inputs": [
        {
          "internalType": "string",
          "name": "stationId",
          "type": "string"
        }
      ],
      "name": "addWeatherStation",
      "outputs": [],
      "stateMutability": "nonpayable",
      "type": "function"
    },
    {
      "inputs": [
        {
          "internalType": "address",
          "name": "",
          "type": "address"
        }
      ],
      "name": "balances",
      "outputs": [
        {
          "internalType": "uint256",
          "name": "",
          "type": "uint256"
        }
      ],
      "stateMutability": "view",
      "type": "function"
    },
    {
      "inputs": [
        {
          "internalType": "bytes32",
          "name": "optionId",
          "type": "bytes32"
        }
      ],
      "name": "claimSettlement",
      "outputs": [],
      "stateMutability": "nonpayable",
      "type": "function"
    },
    {
      "inputs": [
        {
          "internalType": "string",
          "name": "stationId",
          "type": "string"
        },
        {
          "internalType": "uint256",
          "name": "strike",
          "type": "uint256"
        },
        {
          "internalType": "uint256",
          "name": "premium",
          "type": "uint256"
        },
        {
          "internalType": "uint256",
          "name": "expiry",
          "type": "uint256"
        },
        {
          "internalType": "uint256",
          "name": "totalSupply",
          "type": "uint256"
        },
        {
          "internalType": "bool",
          "name": "isCall",
          "type": "bool"
        }
      ],
      "name": "createOption",
      "outputs": [
        {
          "internalType": "bytes32",
          "name": "",
          "type": "bytes32"
        }
      ],
      "stateMutability": "payable",
      "type": "function"
    },
    {
      "inputs": [],
      "name": "emergencyWithdraw",
      "outputs": [],
      "stateMutability": "nonpayable",
      "type": "function"
    },
    {
      "inputs": [],
      "name": "getActiveOptions",
      "outputs": [
        {
          "internalType": "bytes32[]",
          "name": "",
          "type": "bytes32[]"
        }
      ],
      "stateMutability": "view",
      "type": "function"
    },
    {
      "inputs": [
        {
          "internalType": "bytes32",
          "name": "optionId",
          "type": "bytes32"
        }
      ],
      "name": "getOptionDetails",
      "outputs": [
        {
          "components": [
            {
              "internalType": "bytes32",
              "name": "optionId",
              "type": "bytes32"
            },
            {
              "internalType": "string",
              "name": "stationId",
              "type": "string"
            },
            {
              "internalType": "uint256",
              "name": "strike",
              "type": "uint256"
            },
            {
              "internalType": "uint256",
              "name": "premium",
              "type": "uint256"
            },
            {
              "internalType": "uint256",
              "name": "expiry",
              "type": "uint256"
            },
            {
              "internalType": "uint256",
              "name": "totalSupply",
              "type": "uint256"
            },
            {
              "internalType": "uint256",
              "name": "purchased",
              "type": "uint256"
            },
            {
              "internalType": "bool",
              "name": "isCall",
              "type": "bool"
            },
            {
              "internalType": "bool",
              "name": "settled",
              "type": "bool"
            },
            {
              "internalType": "uint256",
              "name": "settlementValue",
              "type": "uint256"
            },
            {
              "internalType": "address",
              "name": "creator",
              "type": "address"
            }
          ],
          "internalType": "struct RainfallIndex.RainfallOption",
          "name": "",
          "type": "tuple"
        }
      ],
      "stateMutability": "view",
      "type": "function"
    },
    {
      "inputs": [
        {
          "internalType": "string",
          "name": "stationId",
          "type": "string"
        }
      ],
      "name": "getRainfallData",
      "outputs": [
        {
          "components": [
            {
              "internalType": "uint256",
              "name": "value",
              "type": "uint256"
            },
            {
              "internalType": "uint256",
              "name": "timestamp",
              "type": "uint256"
            },
            {
              "internalType": "bool",
              "name": "verified",
              "type": "bool"
            },
            {
              "internalType": "string",
              "name": "source",
              "type": "string"
            }
          ],
          "internalType": "struct RainfallIndex.RainfallData",
          "name": "",
          "type": "tuple"
        }
      ],
      "stateMutability": "view",
      "type": "function"
    },
    {
      "inputs": [
        {
          "internalType": "address",
          "name": "user",
          "type": "address"
        },
        {
          "internalType": "bytes32",
          "name": "optionId",
          "type": "bytes32"
        }
      ],
      "name": "getUserPosition",
      "outputs": [
        {
          "components": [
            {
              "internalType": "bytes32",
              "name": "optionId",
              "type": "bytes32"
            },
            {
              "internalType": "uint256",
              "name": "quantity",
              "type": "uint256"
            },
            {
              "internalType": "uint256",
              "name": "entryPrice",
              "type": "uint256"
            },
            {
              "internalType": "bool",
              "name": "isLong",
              "type": "bool"
            }
          ],
          "internalType": "struct RainfallIndex.Position",
          "name": "",
          "type": "tuple"
        }
      ],
      "stateMutability": "view",
      "type": "function"
    },
    {
      "inputs": [],
      "name": "getWeatherStations",
      "outputs": [
        {
          "internalType": "string[]",
          "name": "",
          "type": "string[]"
        }
      ],
      "stateMutability": "view",
      "type": "function"
    },
    {
      "inputs": [
        {
          "internalType": "bytes32",
          "name": "",
          "type": "bytes32"
        }
      ],
      "name": "options",
      "outputs": [
        {
          "internalType": "bytes32",
          "name": "optionId",
          "type": "bytes32"
        },
        {
          "internalType": "string",
          "name": "stationId",
          "type": "string"
        },
        {
          "internalType": "uint256",
          "name": "strike",
          "type": "uint256"
        },
        {
          "internalType": "uint256",
          "name": "premium",
          "type": "uint256"
        },
        {
          "internalType": "uint256",
          "name": "expiry",
          "type": "uint256"
        },
        {
          "internalType": "uint256",
          "name": "totalSupply",
          "type": "uint256"
        },
        {
          "internalType": "uint256",
          "name": "purchased",
          "type": "uint256"
        },
        {
          "internalType": "bool",
          "name": "isCall",
          "type": "bool"
        },
        {
          "internalType": "bool",
          "name": "settled",
          "type": "bool"
        },
        {
          "internalType": "uint256",
          "name": "settlementValue",
          "type": "uint256"
        },
        {
          "internalType": "address",
          "name": "creator",
          "type": "address"
        }
      ],
      "stateMutability": "view",
      "type": "function"
    },
    {
      "inputs": [],
      "name": "owner",
      "outputs": [
        {
          "internalType": "address",
          "name": "",
          "type": "address"
        }
      ],
      "stateMutability": "view",
      "type": "function"
    },
    {
      "inputs": [],
      "name": "pause",
      "outputs": [],
      "stateMutability": "nonpayable",
      "type": "function"
    },
    {
      "inputs": [],
      "name": "paused",
      "outputs": [
        {
          "internalType": "bool",
          "name": "",
          "type": "bool"
        }
      ],
      "stateMutability": "view",
      "type": "function"
    },
    {
      "inputs": [
        {
          "internalType": "address",
          "name": "",
          "type": "address"
        },
        {
          "internalType": "bytes32",
          "name": "",
          "type": "bytes32"
        }
      ],
      "name": "positions",
      "outputs": [
        {
          "internalType": "bytes32",
          "name": "optionId",
          "type": "bytes32"
        },
        {
          "internalType": "uint256",
          "name": "quantity",
          "type": "uint256"
        },
        {
          "internalType": "uint256",
          "name": "entryPrice",
          "type": "uint256"
        },
        {
          "internalType": "bool",
          "name": "isLong",
          "type": "bool"
        }
      ],
      "stateMutability": "view",
      "type": "function"
    },
    {
      "inputs": [],
      "name": "protocolFee",
      "outputs": [
        {
          "internalType": "uint256",
          "name": "",
          "type": "uint256"
        }
      ],
      "stateMutability": "view",
      "type": "function"
    },
    {
      "inputs": [
        {
          "internalType": "bytes32",
          "name": "optionId",
          "type": "bytes32"
        },
        {
          "internalType": "uint256",
          "name": "quantity",
          "type": "uint256"
        }
      ],
      "name": "purchaseOption",
      "outputs": [],
      "stateMutability": "payable",
      "type": "function"
    },
    {
      "inputs": [
        {
          "internalType": "string",
          "name": "",
          "type": "string"
        }
      ],
      "name": "rainfallData",
      "outputs": [
        {
          "internalType": "uint256",
          "name": "value",
          "type": "uint256"
        },
        {
          "internalType": "uint256",
          "name": "timestamp",
          "type": "uint256"
        },
        {
          "internalType": "bool",
          "name": "verified",
          "type": "bool"
        },
        {
          "internalType": "string",
          "name": "source",
          "type": "string"
        }
      ],
      "stateMutability": "view",
      "type": "function"
    },
    {
      "inputs": [],
      "name": "renounceOwnership",
      "outputs": [],
      "stateMutability": "nonpayable",
      "type": "function"
    },
    {
      "inputs": [
        {
          "internalType": "uint256",
          "name": "_newFee",
          "type": "uint256"
        }
      ],
      "name": "setProtocolFee",
      "outputs": [],
      "stateMutability": "nonpayable",
      "type": "function"
    },
    {
      "inputs": [
        {
          "internalType": "address",
          "name": "_newOracle",
          "type": "address"
        }
      ],
      "name": "setWeatherOracle",
      "outputs": [],
      "stateMutability": "nonpayable",
      "type": "function"
    },
    {
      "inputs": [
        {
          "internalType": "bytes32",
          "name": "optionId",
          "type": "bytes32"
        }
      ],
      "name": "settleOption",
      "outputs": [],
      "stateMutability": "nonpayable",
      "type": "function"
    },
    {
      "inputs": [],
      "name": "totalVolumeTraded",
      "outputs": [
        {
          "internalType": "uint256",
          "name": "",
          "type": "uint256"
        }
      ],
      "stateMutability": "view",
      "type": "function"
    },
    {
      "inputs": [
        {
          "internalType": "address",
          "name": "newOwner",
          "type": "address"
        }
      ],
      "name": "transferOwnership",
      "outputs": [],
      "stateMutability": "nonpayable",
      "type": "function"
    },
    {
      "inputs": [],
      "name": "unpause",
      "outputs": [],
      "stateMutability": "nonpayable",
      "type": "function"
    },
    {
      "inputs": [
        {
          "internalType": "string",
          "name": "stationId",
          "type": "string"
        },
        {
          "internalType": "uint256",
          "name": "rainfall",
          "type": "uint256"
        },
        {
          "internalType": "string",
          "name": "source",
          "type": "string"
        }
      ],
      "name": "updateRainfallData",
      "outputs": [],
      "stateMutability": "nonpayable",
      "type": "function"
    },
    {
      "inputs": [],
      "name": "weatherOracle",
      "outputs": [
        {
          "internalType": "address",
          "name": "",
          "type": "address"
        }
      ],
      "stateMutability": "view",
      "type": "function"
    },
    {
      "inputs": [
        {
          "internalType": "uint256",
          "name": "",
          "type": "uint256"
        }
      ],
      "name": "weatherStations",
      "outputs": [
        {
          "internalType": "string",
          "name": "",
          "type": "string"
        }
      ],
      "stateMutability": "view",
      "type": "function"
    },
    {
      "inputs": [
        {
          "internalType": "uint256",
          "name": "amount",
          "type": "uint256"
        }
      ],
      "name": "withdraw",
      "outputs": [],
      "stateMutability": "nonpayable",
      "type": "function"
    },
    {
      "stateMutability": "payable",
      "type": "receive"
    }
  ],
  "bytecode": "0x608060405260fa6009553480156200001657600080fd5b50604051620030f1380380620030f183398101604081905262000039916200014c565b600160005533806200006557604051631e4fbdf760e01b81526000600482015260240160405180910390fd5b6200007081620000fa565b50600880546001600160a01b0319166001600160a01b0383161790556007805460018101825560009190915260408051808201909152600e81526d77786d5f64616c6c61735f30303160901b60208201527fa66cc928b5edb82af9bd49922954155ab7b0942694bea4ce44661d9a8736c68890910190620000f2908262000223565b5050620002ef565b600180546001600160a01b038381166001600160a01b0319831681179093556040519116919082907f8be0079c531659141344cd1fd0a4f28419497f9722a3daafe3b4186f6b6457e090600090a35050565b6000602082840312156200015f57600080fd5b81516001600160a01b03811681146200017757600080fd5b9392505050565b634e487b7160e01b600052604160045260246000fd5b600181811c90821680620001a957607f821691505b602082108103620001ca57634e487b7160e01b600052602260045260246000fd5b50919050565b601f8211156200021e57600081815260208120601f850160051c81016020861015620001f95750805b601f850160051c820191505b818110156200021a5782815560010162000205565b5050505b505050565b81516001600160401b038111156200023f576200023f6200017e565b620002578162000250845462000194565b84620001d0565b602080601f8311600181146200028f5760008415620002765750858301515b600019600386901b1c1916600185901b1785556200021a565b600085815260208120601f198616915b82811015620002c0578886015182559484019460019091019084016200029f565b5085821015620002df5787850151600019600388901b60f8161c191681555b5050505050600190811b01905550565b612df280620002ff6000396000f3fe6080604052600436106101f25760003560e01c80635b4c35431161010d5780639e060bb5116100a0578063be5c8f441161006f578063be5c8f4414610661578063c4a63a4b1461067c578063db2e21bc1461069c578063f2fde38b146106b1578063f81a957c146106d157600080fd5b80639e060bb5146105cc578063a498e99c14610621578063aaf5eb6814610634578063b0e21e8a1461064b57600080fd5b8063787dce3d116100dc578063787dce3d146105415780637ee94ef1146105615780638456cb59146105995780638da5cb5b146105ae57600080fd5b80635b4c3543146104ab5780635c975abb146104e25780636f64cc851461050c578063715018a61461052c57600080fd5b806334176a6d116101855780634fe11c8b116101545780634fe11c8b1461043d5780634ff8ad1d146104555780635adc19c7146104685780635b2f55c71461047e57600080fd5b806334176a6d14610375578063342d32de146103e657806336c7cb61146104085780633f4ba83a1461042857600080fd5b806318b09f26116101c157806318b09f26146102d857806321aa4c0b146102fa57806327e235e31461031a5780632e1a7d4d1461035557600080fd5b806306b2ce03146102235780630d96d86e1461025c578063113b7c271461028957806316a8ba80146102b657600080fd5b3661021e5733600090815260056020526040812080543492906102169084906125d8565b925050819055005b600080fd5b34801561022f57600080fd5b5061024361023e36600461268e565b6106f1565b604051610253949392919061271b565b60405180910390f35b34801561026857600080fd5b5061027c61027736600461268e565b6107b3565b6040516102539190612742565b34801561029557600080fd5b506102a96102a436600461277d565b6108c7565b6040516102539190612796565b3480156102c257600080fd5b506102cb610a65565b6040516102539190612843565b3480156102e457600080fd5b506102f86102f33660046128c1565b610b3e565b005b34801561030657600080fd5b506102f861031536600461277d565b610b90565b34801561032657600080fd5b506103476103353660046128c1565b60056020526000908152604090205481565b604051908152602001610253565b34801561036157600080fd5b506102f861037036600461277d565b610cf6565b34801561038157600080fd5b506103c46103903660046128e3565b6003602081815260009384526040808520909152918352912080546001820154600283015492909301549092919060ff1684565b6040805194855260208501939093529183015215156060820152608001610253565b3480156103f257600080fd5b506103fb610e0f565b604051610253919061290d565b34801561041457600080fd5b5061034761042336600461277d565b610e67565b34801561043457600080fd5b506102f8610e88565b34801561044957600080fd5b506103476301e1338081565b610347610463366004612951565b610e9a565b34801561047457600080fd5b50610347600a5481565b34801561048a57600080fd5b5061049e61049936600461277d565b61132a565b60405161025391906129cd565b3480156104b757600080fd5b506104cb6104c636600461277d565b6113d6565b6040516102539b9a999897969594939291906129e0565b3480156104ee57600080fd5b50600154600160a01b900460ff166040519015158152602001610253565b34801561051857600080fd5b506102f8610527366004612a4f565b6114c5565b34801561053857600080fd5b506102f8611600565b34801561054d57600080fd5b506102f861055c36600461277d565b611612565b34801561056d57600080fd5b50600854610581906001600160a01b031681565b6040516001600160a01b039091168152602001610253565b3480156105a557600080fd5b506102f8611660565b3480156105ba57600080fd5b506001546001600160a01b0316610581565b3480156105d857600080fd5b506105ec6105e73660046128e3565b611670565b604051610253919081518152602080830151908201526040808301519082015260609182015115159181019190915260800190565b6102f861062f366004612abc565b6116eb565b34801561064057600080fd5b50610347620f424081565b34801561065757600080fd5b5061034760095481565b34801561066d57600080fd5b5061034766038d7ea4c6800081565b34801561068857600080fd5b506102f861069736600461268e565b611a4f565b3480156106a857600080fd5b506102f8611a93565b3480156106bd57600080fd5b506102f86106cc3660046128c1565b611c22565b3480156106dd57600080fd5b506102f86106ec36600461277d565b611c5d565b805160208183018101805160048252928201919093012091528054600182015460028301546003840180549394929360ff909216929161073090612ade565b80601f016020809104026020016040519081016040528092919081815260200182805461075c90612ade565b80156107a95780601f1061077e576101008083540402835291602001916107a9565b820191906000526020600020905b81548152906001019060200180831161078c57829003601f168201915b5050505050905084565b6107e060405180608001604052806000815260200160008152602001600015158152602001606081525090565b6004826040516107f09190612b18565b90815260408051918290036020908101832060808401835280548452600181015491840191909152600281015460ff1615159183019190915260038101805460608401919061083e90612ade565b80601f016020809104026020016040519081016040528092919081815260200182805461086a90612ade565b80156108b75780601f1061088c576101008083540402835291602001916108b7565b820191906000526020600020905b81548152906001019060200180831161089a57829003601f168201915b5050505050815250509050919050565b610934604051806101600160405280600080191681526020016060815260200160008152602001600081526020016000815260200160008152602001600081526020016000151581526020016000151581526020016000815260200160006001600160a01b031681525090565b60026000838152602001908152602001600020604051806101600160405290816000820154815260200160018201805461096d90612ade565b80601f016020809104026020016040519081016040528092919081815260200182805461099990612ade565b80156109e65780601f106109bb576101008083540402835291602001916109e6565b820191906000526020600020905b8154815290600101906020018083116109c957829003601f168201915b505050918352505060028201546020820152600382015460408201526004820154606082015260058201546080820152600682015460a0820152600782015460ff808216151560c08401526101009182900416151560e08301526008830154908201526009909101546001600160a01b03166101209091015292915050565b60606007805480602002602001604051908101604052809291908181526020016000905b82821015610b35578382906000526020600020018054610aa890612ade565b80601f0160208091040260200160405190810160405280929190818152602001828054610ad490612ade565b8015610b215780601f10610af657610100808354040283529160200191610b21565b820191906000526020600020905b815481529060010190602001808311610b0457829003601f168201915b505050505081526020019060010190610a89565b50505050905090565b610b46612067565b600880546001600160a01b0319166001600160a01b0383169081179091556040517f3df77beb5db05fcdd70a30fc8adf3f83f9501b68579455adbd100b818094039490600090a250565b610b98612094565b6000818152600260205260409020548190610bce5760405162461bcd60e51b8152600401610bc590612b34565b60405180910390fd5b60008281526002602052604090206007810154610100900460ff16610c2a5760405162461bcd60e51b815260206004820152601260248201527113dc1d1a5bdb881b9bdd081cd95d1d1b195960721b6044820152606401610bc5565b33600090815260036020908152604080832086845290915290206001810154610c8c5760405162461bcd60e51b81526020600482015260146024820152734e6f20706f736974696f6e20746f20636c61696d60601b6044820152606401610bc5565b6000826005015482600101548460080154610ca79190612b63565b610cb19190612b7a565b6000600184015590508015610ce5573360009081526005602052604081208054839290610cdf9084906125d8565b90915550505b50505050610cf36001600055565b50565b610cfe612094565b33600090815260056020526040902054811115610d545760405162461bcd60e51b8152602060048201526014602482015273496e73756666696369656e742062616c616e636560601b6044820152606401610bc5565b3360009081526005602052604081208054839290610d73908490612b9c565b9091555050604051600090339083908381818185875af1925050503d8060008114610dba576040519150601f19603f3d011682016040523d82523d6000602084013e610dbf565b606091505b5050905080610e045760405162461bcd60e51b815260206004820152601160248201527015da5d1a191c985dd85b0819985a5b1959607a1b6044820152606401610bc5565b50610cf36001600055565b60606006805480602002602001604051908101604052809291908181526020018280548015610e5d57602002820191906000526020600020905b815481526020019060010190808311610e49575b5050505050905090565b60068181548110610e7757600080fd5b600091825260209091200154905081565b610e90612067565b610e986120be565b565b6000610ea4612113565b610eac612094565b66038d7ea4c68000851015610ef55760405162461bcd60e51b815260206004820152600f60248201526e5072656d69756d20746f6f206c6f7760881b6044820152606401610bc5565b428411610f445760405162461bcd60e51b815260206004820152601860248201527f457870697279206d75737420626520696e2066757475726500000000000000006044820152606401610bc5565b610f526301e13380426125d8565b841115610fa15760405162461bcd60e51b815260206004820152601860248201527f45787069727920746f6f2066617220696e2066757475726500000000000000006044820152606401610bc5565b60008311610ff15760405162461bcd60e51b815260206004820152601d60248201527f546f74616c20737570706c79206d75737420626520706f7369746976650000006044820152606401610bc5565b600086116110415760405162461bcd60e51b815260206004820152601760248201527f537472696b65206d75737420626520706f7369746976650000000000000000006044820152606401610bc5565b600082611057576110528488612b63565b61107a565b620f424080611066868a612b63565b6110709190612b63565b61107a9190612b7a565b9050803410156110cc5760405162461bcd60e51b815260206004820152601760248201527f496e73756666696369656e7420636f6c6c61746572616c0000000000000000006044820152606401610bc5565b60008888878642336040516020016110e996959493929190612baf565b60408051601f19818403018152918152815160209283012060008181526002909352912054909150156111565760405162461bcd60e51b81526020600482015260156024820152744f7074696f6e20616c72656164792065786973747360581b6044820152606401610bc5565b604080516101608101825282815260208082018c81528284018c9052606083018b9052608083018a905260a08301899052600060c0840181905288151560e08501526101008401819052610120840181905233610140850152858152600290925292902081518155915190919060018201906111d29082612c4e565b5060408201516002820155606082015160038201556080820151600482015560a0820151600582015560c082015160068083019190915560e08301516007830180546101008087015115150261ff00199315159390931661ffff1990911617919091179055610120830151600883015561014090920151600990910180546001600160a01b039092166001600160a01b031990921691909117905580546001810182556000919091527ff652222313e28459528d920b65115c16c04f3efc82aaedc97be59f3f377c0d3f018190556112aa8234612b9c565b33600090815260056020526040812080549091906112c99084906125d8565b90915550506040805189815260208101899052908101879052339082907f90c5c56245417ada8a9f3d4784f1de18be80d532ccbc14e317dc1028b8814ad69060600160405180910390a39150506113206001600055565b9695505050505050565b6007818154811061133a57600080fd5b90600052602060002001600091509050805461135590612ade565b80601f016020809104026020016040519081016040528092919081815260200182805461138190612ade565b80156113ce5780601f106113a3576101008083540402835291602001916113ce565b820191906000526020600020905b8154815290600101906020018083116113b157829003601f168201915b505050505081565b600260205260009081526040902080546001820180549192916113f890612ade565b80601f016020809104026020016040519081016040528092919081815260200182805461142490612ade565b80156114715780601f1061144657610100808354040283529160200191611471565b820191906000526020600020905b81548152906001019060200180831161145457829003601f168201915b50505060028401546003850154600486015460058701546006880154600789015460088a01546009909a0154989995989497509295509093909260ff8084169361010090041691906001600160a01b03168b565b6008546001600160a01b0316331461152a5760405162461bcd60e51b815260206004820152602260248201527f4f6e6c79206f7261636c652063616e2063616c6c20746869732066756e63746960448201526137b760f11b6064820152608401610bc5565b6040805160808101825283815242602082015260018183015260608101839052905160049061155a908690612b18565b90815260408051602092819003830190208351815591830151600183015582015160028201805460ff1916911515919091179055606082015160038201906115a29082612c4e565b50506040516115b391508490612b18565b60408051918290038220848352426020840152917f4f9d5711a0b619e6ad0c11918feef2619aae604d9a9aae099ef96ed8d5c37012910160405180910390a26115fb8361213e565b505050565b611608612067565b610e98600061244d565b61161a612067565b6103e881111561165b5760405162461bcd60e51b815260206004820152600c60248201526b08ccaca40e8dede40d0d2ced60a31b6044820152606401610bc5565b600955565b611668612067565b610e9861249f565b60408051608080820183526000808352602080840182905283850182905260609384018290526001600160a01b038716825260038082528583208784528252918590208551938401865280548452600181015491840191909152600281015494830194909452929092015460ff161515908201525b92915050565b6116f3612113565b6116fb612094565b60008281526002602052604090205482906117285760405162461bcd60e51b8152600401610bc590612b34565b6000838152600260205260409020600401548390421061177f5760405162461bcd60e51b815260206004820152601260248201527113dc1d1a5bdb881a185cc8195e1c1a5c995960721b6044820152606401610bc5565b6000848152600260205260409020600701548490610100900460ff16156117e15760405162461bcd60e51b815260206004820152601660248201527513dc1d1a5bdb88185b1c9958591e481cd95d1d1b195960521b6044820152606401610bc5565b6000858152600260205260409020600581015460068201546118049087906125d8565b11156118525760405162461bcd60e51b815260206004820152601e60248201527f496e73756666696369656e74206f7074696f6e7320617661696c61626c6500006044820152606401610bc5565b60008582600301546118649190612b63565b90506000612710600954836118799190612b63565b6118839190612b7a565b9050600061189182846125d8565b9050803410156118da5760405162461bcd60e51b8152602060048201526014602482015273125b9cdd59999a58da595b9d081c185e5b595b9d60621b6044820152606401610bc5565b878460060160008282546118ee91906125d8565b90915550503360009081526003602090815260408083208c84529091528120600181015490910361192c5789815560038101805460ff191660011790555b8881600101600082825461194091906125d8565b90915550506001810154846119558b83612b9c565b83600201546119649190612b63565b61196e91906125d8565b6119789190612b7a565b600282015560098501546001600160a01b0316600090815260056020526040812080548692906119a99084906125d8565b9091555050348210156119e5576119c08234612b9c565b33600090815260056020526040812080549091906119df9084906125d8565b90915550505b83600a60008282546119f791906125d8565b9091555050604080518a81526020810186905233918c917f64416cfe021714ce33714ce3cc49be24abd2d74adb3ed3201d0a091de295071b910160405180910390a35050505050505050611a4b6001600055565b5050565b611a57612067565b600780546001810182556000919091527fa66cc928b5edb82af9bd49922954155ab7b0942694bea4ce44661d9a8736c68801611a4b8282612c4e565b600154600160a01b900460ff16611aec5760405162461bcd60e51b815260206004820152601760248201527f436f6e7472616374206d757374206265207061757365640000000000000000006044820152606401610bc5565b3360009081526005602052604090205480611b425760405162461bcd60e51b81526020600482015260166024820152754e6f2062616c616e636520746f20776974686472617760501b6044820152606401610bc5565b336000818152600560205260408082208290555190919083908381818185875af1925050503d8060008114611b93576040519150601f19603f3d011682016040523d82523d6000602084013e611b98565b606091505b5050905080611be95760405162461bcd60e51b815260206004820152601b60248201527f456d657267656e6379207769746864726177616c206661696c656400000000006044820152606401610bc5565b60405182815233907f23d6711a1d031134a36921253c75aa59e967d38e369ac625992824315e204f209060200160405180910390a25050565b611c2a612067565b6001600160a01b038116611c5457604051631e4fbdf760e01b815260006004820152602401610bc5565b610cf38161244d565b6000818152600260205260409020548190611c8a5760405162461bcd60e51b8152600401610bc590612b34565b6000828152600260205260409020600701548290610100900460ff1615611cec5760405162461bcd60e51b815260206004820152601660248201527513dc1d1a5bdb88185b1c9958591e481cd95d1d1b195960521b6044820152606401610bc5565b60008381526002602052604090206004810154421015611d475760405162461bcd60e51b815260206004820152601660248201527513dc1d1a5bdb881b9bdd081e595d08195e1c1a5c995960521b6044820152606401610bc5565b6000600482600101604051611d5c9190612d81565b90815260408051918290036020908101832060808401835280548452600181015491840191909152600281015460ff16151591830191909152600381018054606084019190611daa90612ade565b80601f0160208091040260200160405190810160405280929190818152602001828054611dd690612ade565b8015611e235780601f10611df857610100808354040283529160200191611e23565b820191906000526020600020905b815481529060010190602001808311611e0657829003601f168201915b50505050508152505090508060400151611e7f5760405162461bcd60e51b815260206004820152601960248201527f4e6f207665726966696564207261696e66616c6c2064617461000000000000006044820152606401610bc5565b620151808260040154611e929190612b9c565b81602001511015611edb5760405162461bcd60e51b81526020600482015260136024820152725374616c65207261696e66616c6c206461746160681b6044820152606401610bc5565b6000816000015190506000612008846040518061016001604052908160008201548152602001600182018054611f1090612ade565b80601f0160208091040260200160405190810160405280929190818152602001828054611f3c90612ade565b8015611f895780601f10611f5e57610100808354040283529160200191611f89565b820191906000526020600020905b815481529060010190602001808311611f6c57829003601f168201915b505050918352505060028201546020820152600382015460408201526004820154606082015260058201546080820152600682015460a0820152600782015460ff808216151560c08401526101009182900416151560e08301526008830154908201526009909101546001600160a01b031661012090910152836124e2565b60078501805461ff00191661010017905560088501819055604080518481526020810183905291925088917f20503b51b1bf76c011d9956b80f7c74b9b32cf53c0e266cd85323747392f3a19910160405180910390a250505050505050565b6001546001600160a01b03163314610e985760405163118cdaa760e01b8152336004820152602401610bc5565b6002600054036120b757604051633ee5aeb560e01b815260040160405180910390fd5b6002600055565b6120c6612598565b6001805460ff60a01b191690557f5db9ee0a495bf2e6ff9c91a7834c1ba4fdd244a5e8aa4e537bd38aeae4b073aa335b6040516001600160a01b03909116815260200160405180910390a1565b600154600160a01b900460ff1615610e985760405163d93c066560e01b815260040160405180910390fd5b60005b600654811015611a4b5760006006828154811061216057612160612d8d565b60009182526020808320909101548083526002909152604090912060078101549192509060ff6101009091041615801561219e575080600401544210155b80156121c75750835160208501206040516121bd906001840190612d81565b6040518091039020145b156124385760006004856040516121de9190612b18565b90815260408051918290036020908101832060808401835280548452600181015491840191909152600281015460ff1615159183019190915260038101805460608401919061222c90612ade565b80601f016020809104026020016040519081016040528092919081815260200182805461225890612ade565b80156122a55780601f1061227a576101008083540402835291602001916122a5565b820191906000526020600020905b81548152906001019060200180831161228857829003601f168201915b505050505081525050905060006123d58360405180610160016040529081600082015481526020016001820180546122dc90612ade565b80601f016020809104026020016040519081016040528092919081815260200182805461230890612ade565b80156123555780601f1061232a57610100808354040283529160200191612355565b820191906000526020600020905b81548152906001019060200180831161233857829003601f168201915b505050918352505060028201546020820152600382015460408201526004820154606082015260058201546080820152600682015460a0820152600782015460ff808216151560c08401526101009182900416151560e08301526008830154908201526009909101546001600160a01b03166101209091015283516124e2565b60078401805461ff00191661010017905560088401819055825160405191925085917f20503b51b1bf76c011d9956b80f7c74b9b32cf53c0e266cd85323747392f3a199161242d918590918252602082015260400190565b60405180910390a250505b5050808061244590612da3565b915050612141565b600180546001600160a01b038381166001600160a01b0319831681179093556040519116919082907f8be0079c531659141344cd1fd0a4f28419497f9722a3daafe3b4186f6b6457e090600090a35050565b6124a7612113565b6001805460ff60a01b1916600160a01b1790557f62e78cea01bee320cd4e420270b5ea74000d11b0c9f74754ebdbfc544b05a2586120f63390565b60008260e001511561254e57620f424083604001516125019190612b63565b82111561254957620f42408360c00151620f424085604001516125249190612b63565b61252e9085612b9c565b6125389190612b63565b6125429190612b7a565b90506116e5565b61258f565b620f424083604001516125619190612b63565b82101561258f57620f42408360c0015183620f424086604001516125859190612b63565b61252e9190612b9c565b50600092915050565b600154600160a01b900460ff16610e9857604051638dfc202b60e01b815260040160405180910390fd5b634e487b7160e01b600052601160045260246000fd5b808201808211156116e5576116e56125c2565b634e487b7160e01b600052604160045260246000fd5b600082601f83011261261257600080fd5b813567ffffffffffffffff8082111561262d5761262d6125eb565b604051601f8301601f19908116603f01168101908282118183101715612655576126556125eb565b8160405283815286602085880101111561266e57600080fd5b836020870160208301376000602085830101528094505050505092915050565b6000602082840312156126a057600080fd5b813567ffffffffffffffff8111156126b757600080fd5b6126c384828501612601565b949350505050565b60005b838110156126e65781810151838201526020016126ce565b50506000910152565b600081518084526127078160208601602086016126cb565b601f01601f19169290920160200192915050565b848152836020820152821515604082015260806060820152600061132060808301846126ef565b602081528151602082015260208201516040820152604082015115156060820152600060608301516080808401526126c360a08401826126ef565b60006020828403121561278f57600080fd5b5035919050565b6020815281516020820152600060208301516101608060408501526127bf6101808501836126ef565b91506040850151606085015260608501516080850152608085015160a085015260a085015160c085015260c085015160e085015260e08501516101006128088187018315159052565b860151905061012061281d8682018315159052565b86015161014086810191909152909501516001600160a01b031693019290925250919050565b6000602080830181845280855180835260408601915060408160051b870101925083870160005b8281101561289857603f198886030184526128868583516126ef565b9450928501929085019060010161286a565b5092979650505050505050565b80356001600160a01b03811681146128bc57600080fd5b919050565b6000602082840312156128d357600080fd5b6128dc826128a5565b9392505050565b600080604083850312156128f657600080fd5b6128ff836128a5565b946020939093013593505050565b6020808252825182820181905260009190848201906040850190845b8181101561294557835183529284019291840191600101612929565b50909695505050505050565b60008060008060008060c0878903121561296a57600080fd5b863567ffffffffffffffff81111561298157600080fd5b61298d89828a01612601565b9650506020870135945060408701359350606087013592506080870135915060a087013580151581146129bf57600080fd5b809150509295509295509295565b6020815260006128dc60208301846126ef565b60006101608d83528060208401526129fa8184018e6126ef565b604084019c909c5250506060810198909852608088019690965260a087019490945260c0860192909252151560e085015215156101008401526101208301526001600160a01b03166101409091015292915050565b600080600060608486031215612a6457600080fd5b833567ffffffffffffffff80821115612a7c57600080fd5b612a8887838801612601565b9450602086013593506040860135915080821115612aa557600080fd5b50612ab286828701612601565b9150509250925092565b60008060408385031215612acf57600080fd5b50508035926020909101359150565b600181811c90821680612af257607f821691505b602082108103612b1257634e487b7160e01b600052602260045260246000fd5b50919050565b60008251612b2a8184602087016126cb565b9190910192915050565b60208082526015908201527413dc1d1a5bdb88191bd95cc81b9bdd08195e1a5cdd605a1b604082015260600190565b80820281158282048414176116e5576116e56125c2565b600082612b9757634e487b7160e01b600052601260045260246000fd5b500490565b818103818111156116e5576116e56125c2565b60008751612bc1818460208c016126cb565b9190910195865250602085019390935290151560f81b6040840152604183015260601b6bffffffffffffffffffffffff19166061820152607501919050565b601f8211156115fb57600081815260208120601f850160051c81016020861015612c275750805b601f850160051c820191505b81811015612c4657828155600101612c33565b505050505050565b815167ffffffffffffffff811115612c6857612c686125eb565b612c7c81612c768454612ade565b84612c00565b602080601f831160018114612cb15760008415612c995750858301515b600019600386901b1c1916600185901b178555612c46565b600085815260208120601f198616915b82811015612ce057888601518255948401946001909101908401612cc1565b5085821015612cfe5787850151600019600388901b60f8161c191681555b5050505050600190811b01905550565b60008154612d1b81612ade565b60018281168015612d335760018114612d4857612d77565b60ff1984168752821515830287019450612d77565b8560005260208060002060005b85811015612d6e5781548a820152908401908201612d55565b50505082870194505b5050505092915050565b60006128dc8284612d0e565b634e487b7160e01b600052603260045260246000fd5b600060018201612db557612db56125c2565b506001019056fea264697066735822122060107637145f9ac8148abb0961f93a364eeb67faf5e2e91f43aeed9c34d0705664736f6c63430008140033",
  "linkReferences": {},
  "deployedLinkReferences": {}
}